{
  "_format": "hh-sol-artifact-1",
  "contractName": "DataHaven",
  "sourceName": "contracts/DataHaven.sol",
  "abi": [
    {
      "inputs": [
        {
          "internalType": "address",
          "name": "_relayer",
          "type": "address"
        }
      ],
      "stateMutability": "nonpayable",
      "type": "constructor"
    },
    {
      "anonymous": false,
      "inputs": [
        {
          "indexed": true,
          "internalType": "bytes32",
          "name": "requestId",
          "type": "bytes32"
        }
      ],
      "name": "AccessRevoked",
      "type": "event"
    },
    {
      "anonymous": false,
      "inputs": [
        {
          "indexed": true,
          "internalType": "bytes32",
          "name": "requestId",
          "type": "bytes32"
        }
      ],
      "name": "RequestFailed",
      "type": "event"
    },
    {
      "anonymous": false,
      "inputs": [
        {
          "indexed": true,
          "internalType": "bytes32",
          "name": "requestId",
          "type": "bytes32"
        }
      ],
      "name": "StorageConfirmed",
      "type": "event"
    },
    {
      "anonymous": false,
      "inputs": [
        {
          "indexed": true,
          "internalType": "bytes32",
          "name": "requestId",
          "type": "bytes32"
        },
        {
          "indexed": true,
          "internalType": "address",
          "name": "user",
          "type": "address"
        },
        {
          "indexed": false,
          "internalType": "bytes32",
          "name": "dataHash",
          "type": "bytes32"
        },
        {
          "indexed": false,
          "internalType": "uint256",
          "name": "payment",
          "type": "uint256"
        },
        {
          "indexed": false,
          "internalType": "uint256",
          "name": "timestamp",
          "type": "uint256"
        }
      ],
      "name": "StorageRequested",
      "type": "event"
    },
    {
      "inputs": [],
      "name": "MIN_PAYMENT",
      "outputs": [
        {
          "internalType": "uint256",
          "name": "",
          "type": "uint256"
        }
      ],
      "stateMutability": "view",
      "type": "function"
    },
    {
      "inputs": [],
      "name": "admin",
      "outputs": [
        {
          "internalType": "address",
          "name": "",
          "type": "address"
        }
      ],
      "stateMutability": "view",
      "type": "function"
    },
    {
      "inputs": [
        {
          "internalType": "bytes32",
          "name": "_requestId",
          "type": "bytes32"
        }
      ],
      "name": "confirmStorage",
      "outputs": [],
      "stateMutability": "nonpayable",
      "type": "function"
    },
    {
      "inputs": [
        {
          "internalType": "bytes32",
          "name": "_dataHash",
          "type": "bytes32"
        }
      ],
      "name": "initiateStorage",
      "outputs": [
        {
          "internalType": "bytes32",
          "name": "",
          "type": "bytes32"
        }
      ],
      "stateMutability": "payable",
      "type": "function"
    },
    {
      "inputs": [
        {
          "internalType": "bytes32",
          "name": "_requestId",
          "type": "bytes32"
        }
      ],
      "name": "markFailed",
      "outputs": [],
      "stateMutability": "nonpayable",
      "type": "function"
    },
    {
      "inputs": [],
      "name": "pause",
      "outputs": [],
      "stateMutability": "nonpayable",
      "type": "function"
    },
    {
      "inputs": [],
      "name": "paused",
      "outputs": [
        {
          "internalType": "bool",
          "name": "",
          "type": "bool"
        }
      ],
      "stateMutability": "view",
      "type": "function"
    },
    {
      "inputs": [],
      "name": "relayer",
      "outputs": [
        {
          "internalType": "address",
          "name": "",
          "type": "address"
        }
      ],
      "stateMutability": "view",
      "type": "function"
    },
    {
      "inputs": [],
      "name": "requestCount",
      "outputs": [
        {
          "internalType": "uint256",
          "name": "",
          "type": "uint256"
        }
      ],
      "stateMutability": "view",
      "type": "function"
    },
    {
      "inputs": [
        {
          "internalType": "bytes32",
          "name": "",
          "type": "bytes32"
        }
      ],
      "name": "requests",
      "outputs": [
        {
          "internalType": "address",
          "name": "user",
          "type": "address"
        },
        {
          "internalType": "bytes32",
          "name": "dataHash",
          "type": "bytes32"
        },
        {
          "internalType": "enum DataHaven.Status",
          "name": "status",
          "type": "uint8"
        },
        {
          "internalType": "uint256",
          "name": "payment",
          "type": "uint256"
        },
        {
          "internalType": "uint256",
          "name": "timestamp",
          "type": "uint256"
        }
      ],
      "stateMutability": "view",
      "type": "function"
    },
    {
      "inputs": [
        {
          "internalType": "bytes32",
          "name": "_requestId",
          "type": "bytes32"
        }
      ],
      "name": "revokeAccess",
      "outputs": [],
      "stateMutability": "nonpayable",
      "type": "function"
    },
    {
      "inputs": [],
      "name": "unpause",
      "outputs": [],
      "stateMutability": "nonpayable",
      "type": "function"
    },
    {
      "inputs": [
        {
          "internalType": "address",
          "name": "_relayer",
          "type": "address"
        }
      ],
      "name": "updateRelayer",
      "outputs": [],
      "stateMutability": "nonpayable",
      "type": "function"
    },
    {
      "inputs": [
        {
          "internalType": "uint256",
          "name": "_amount",
          "type": "uint256"
        }
      ],
      "name": "withdraw",
      "outputs": [],
      "stateMutability": "nonpayable",
      "type": "function"
    },
    {
      "stateMutability": "payable",
      "type": "receive"
    }
  ],
  "bytecode": "0x60806040523480156200001157600080fd5b506040516200174f3803806200174f833981810160405281019062000037919062000129565b336000806101000a81548173ffffffffffffffffffffffffffffffffffffffff021916908373ffffffffffffffffffffffffffffffffffffffff16021790555080600160006101000a81548173ffffffffffffffffffffffffffffffffffffffff021916908373ffffffffffffffffffffffffffffffffffffffff160217905550506200015b565b600080fd5b600073ffffffffffffffffffffffffffffffffffffffff82169050919050565b6000620000f182620000c4565b9050919050565b6200010381620000e4565b81146200010f57600080fd5b50565b6000815190506200012381620000f8565b92915050565b600060208284031215620001425762000141620000bf565b5b6000620001528482850162000112565b91505092915050565b6115e4806200016b6000396000f3fe6080604052600436106100e15760003560e01c80638f83ab131161007f578063b1263ada11610059578063b1263ada14610288578063eb566e91146102b1578063f851a440146102dc578063fd446cb714610307576100e8565b80638f83ab13146101f5578063925ed1a11461021e5780639d86698514610247576100e8565b80635badbe4c116100bb5780635badbe4c1461015d5780635c975abb146101885780638406c079146101b35780638456cb59146101de576100e8565b80632e1a7d4d146100ed5780633f4ba83a1461011657806351c65fef1461012d576100e8565b366100e857005b600080fd5b3480156100f957600080fd5b50610114600480360381019061010f9190610e8a565b610330565b005b34801561012257600080fd5b5061012b610428565b005b61014760048036038101906101429190610eed565b6104d3565b6040516101549190610f29565b60405180910390f35b34801561016957600080fd5b5061017261070d565b60405161017f9190610f53565b60405180910390f35b34801561019457600080fd5b5061019d610713565b6040516101aa9190610f89565b60405180910390f35b3480156101bf57600080fd5b506101c8610726565b6040516101d59190610fe5565b60405180910390f35b3480156101ea57600080fd5b506101f361074c565b005b34801561020157600080fd5b5061021c6004803603810190610217919061102c565b6107f7565b005b34801561022a57600080fd5b5061024560048036038101906102409190610eed565b6108c9565b005b34801561025357600080fd5b5061026e60048036038101906102699190610eed565b610ab5565b60405161027f9594939291906110d0565b60405180910390f35b34801561029457600080fd5b506102af60048036038101906102aa9190610eed565b610b18565b005b3480156102bd57600080fd5b506102c6610c97565b6040516102d39190610f53565b60405180910390f35b3480156102e857600080fd5b506102f1610ca2565b6040516102fe9190610fe5565b60405180910390f35b34801561031357600080fd5b5061032e60048036038101906103299190610eed565b610cc6565b005b60008054906101000a900473ffffffffffffffffffffffffffffffffffffffff1673ffffffffffffffffffffffffffffffffffffffff163373ffffffffffffffffffffffffffffffffffffffff16146103be576040517f08c379a00000000000000000000000000000000000000000000000000000000081526004016103b590611180565b60405180910390fd5b60008054906101000a900473ffffffffffffffffffffffffffffffffffffffff1673ffffffffffffffffffffffffffffffffffffffff166108fc829081150290604051600060405180830381858888f19350505050158015610424573d6000803e3d6000fd5b5050565b60008054906101000a900473ffffffffffffffffffffffffffffffffffffffff1673ffffffffffffffffffffffffffffffffffffffff163373ffffffffffffffffffffffffffffffffffffffff16146104b6576040517f08c379a00000000000000000000000000000000000000000000000000000000081526004016104ad90611180565b60405180910390fd5b6000600360006101000a81548160ff021916908315150217905550565b6000600360009054906101000a900460ff1615610525576040517f08c379a000000000000000000000000000000000000000000000000000000000815260040161051c906111ec565b60405180910390fd5b66038d7ea4c6800034101561056f576040517f08c379a000000000000000000000000000000000000000000000000000000000815260040161056690611258565b60405180910390fd5b6000338360026000815480929190610586906112a7565b919050554260405160200161059e9493929190611379565b6040516020818303038152906040528051906020012090506040518060a001604052803373ffffffffffffffffffffffffffffffffffffffff168152602001848152602001600060038111156105f7576105f6611059565b5b8152602001348152602001428152506004600083815260200190815260200160002060008201518160000160006101000a81548173ffffffffffffffffffffffffffffffffffffffff021916908373ffffffffffffffffffffffffffffffffffffffff1602179055506020820151816001015560408201518160020160006101000a81548160ff0219169083600381111561069557610694611059565b5b021790555060608201518160030155608082015181600401559050503373ffffffffffffffffffffffffffffffffffffffff16817f6df84f6d490512b2c1f5069ab6ab8ff2562f796f4ab608b220f1988ef76bcaaf8534426040516106fc939291906113c7565b60405180910390a380915050919050565b60025481565b600360009054906101000a900460ff1681565b600160009054906101000a900473ffffffffffffffffffffffffffffffffffffffff1681565b60008054906101000a900473ffffffffffffffffffffffffffffffffffffffff1673ffffffffffffffffffffffffffffffffffffffff163373ffffffffffffffffffffffffffffffffffffffff16146107da576040517f08c379a00000000000000000000000000000000000000000000000000000000081526004016107d190611180565b60405180910390fd5b6001600360006101000a81548160ff021916908315150217905550565b60008054906101000a900473ffffffffffffffffffffffffffffffffffffffff1673ffffffffffffffffffffffffffffffffffffffff163373ffffffffffffffffffffffffffffffffffffffff1614610885576040517f08c379a000000000000000000000000000000000000000000000000000000000815260040161087c90611180565b60405180910390fd5b80600160006101000a81548173ffffffffffffffffffffffffffffffffffffffff021916908373ffffffffffffffffffffffffffffffffffffffff16021790555050565b600160009054906101000a900473ffffffffffffffffffffffffffffffffffffffff1673ffffffffffffffffffffffffffffffffffffffff163373ffffffffffffffffffffffffffffffffffffffff1614610959576040517f08c379a00000000000000000000000000000000000000000000000000000000081526004016109509061144a565b60405180910390fd5b60006004600083815260200190815260200160002090506000600381111561098457610983611059565b5b8160020160009054906101000a900460ff1660038111156109a8576109a7611059565b5b146109e8576040517f08c379a00000000000000000000000000000000000000000000000000000000081526004016109df906114b6565b60405180910390fd5b60028160020160006101000a81548160ff02191690836003811115610a1057610a0f611059565b5b02179055508060000160009054906101000a900473ffffffffffffffffffffffffffffffffffffffff1673ffffffffffffffffffffffffffffffffffffffff166108fc82600301549081150290604051600060405180830381858888f19350505050158015610a83573d6000803e3d6000fd5b50817f4769361a442504ecaf038f35e119bcccdd5e42096b24c09e3c17fd17c6684c0260405160405180910390a25050565b60046020528060005260406000206000915090508060000160009054906101000a900473ffffffffffffffffffffffffffffffffffffffff16908060010154908060020160009054906101000a900460ff16908060030154908060040154905085565b60006004600083815260200190815260200160002090503373ffffffffffffffffffffffffffffffffffffffff168160000160009054906101000a900473ffffffffffffffffffffffffffffffffffffffff1673ffffffffffffffffffffffffffffffffffffffff1614610bc1576040517f08c379a0000000000000000000000000000000000000000000000000000000008152600401610bb890611522565b60405180910390fd5b60016003811115610bd557610bd4611059565b5b8160020160009054906101000a900460ff166003811115610bf957610bf8611059565b5b14610c39576040517f08c379a0000000000000000000000000000000000000000000000000000000008152600401610c309061158e565b60405180910390fd5b60038160020160006101000a81548160ff02191690836003811115610c6157610c60611059565b5b0217905550817f0135da073807bb75b5ac08972e9dd63b72d73a01c65a5ed22fc25a53ed750d2c60405160405180910390a25050565b66038d7ea4c6800081565b60008054906101000a900473ffffffffffffffffffffffffffffffffffffffff1681565b600160009054906101000a900473ffffffffffffffffffffffffffffffffffffffff1673ffffffffffffffffffffffffffffffffffffffff163373ffffffffffffffffffffffffffffffffffffffff1614610d56576040517f08c379a0000000000000000000000000000000000000000000000000000000008152600401610d4d9061144a565b60405180910390fd5b60006003811115610d6a57610d69611059565b5b6004600083815260200190815260200160002060020160009054906101000a900460ff166003811115610da057610d9f611059565b5b14610de0576040517f08c379a0000000000000000000000000000000000000000000000000000000008152600401610dd7906114b6565b60405180910390fd5b60016004600083815260200190815260200160002060020160006101000a81548160ff02191690836003811115610e1a57610e19611059565b5b0217905550807faad19b89cac6d89bebed8fb770e421582f91c4a0394669341473eb0d5ed4098a60405160405180910390a250565b600080fd5b6000819050919050565b610e6781610e54565b8114610e7257600080fd5b50565b600081359050610e8481610e5e565b92915050565b600060208284031215610ea057610e9f610e4f565b5b6000610eae84828501610e75565b91505092915050565b6000819050919050565b610eca81610eb7565b8114610ed557600080fd5b50565b600081359050610ee781610ec1565b92915050565b600060208284031215610f0357610f02610e4f565b5b6000610f1184828501610ed8565b91505092915050565b610f2381610eb7565b82525050565b6000602082019050610f3e6000830184610f1a565b92915050565b610f4d81610e54565b82525050565b6000602082019050610f686000830184610f44565b92915050565b60008115159050919050565b610f8381610f6e565b82525050565b6000602082019050610f9e6000830184610f7a565b92915050565b600073ffffffffffffffffffffffffffffffffffffffff82169050919050565b6000610fcf82610fa4565b9050919050565b610fdf81610fc4565b82525050565b6000602082019050610ffa6000830184610fd6565b92915050565b61100981610fc4565b811461101457600080fd5b50565b60008135905061102681611000565b92915050565b60006020828403121561104257611041610e4f565b5b600061105084828501611017565b91505092915050565b7f4e487b7100000000000000000000000000000000000000000000000000000000600052602160045260246000fd5b6004811061109957611098611059565b5b50565b60008190506110aa82611088565b919050565b60006110ba8261109c565b9050919050565b6110ca816110af565b82525050565b600060a0820190506110e56000830188610fd6565b6110f26020830187610f1a565b6110ff60408301866110c1565b61110c6060830185610f44565b6111196080830184610f44565b9695505050505050565b600082825260208201905092915050565b7f4e6f742061646d696e0000000000000000000000000000000000000000000000600082015250565b600061116a600983611123565b915061117582611134565b602082019050919050565b600060208201905081810360008301526111998161115d565b9050919050565b7f5061757365640000000000000000000000000000000000000000000000000000600082015250565b60006111d6600683611123565b91506111e1826111a0565b602082019050919050565b60006020820190508181036000830152611205816111c9565b9050919050565b7f496e73756666696369656e74207061796d656e74000000000000000000000000600082015250565b6000611242601483611123565b915061124d8261120c565b602082019050919050565b6000602082019050818103600083015261127181611235565b9050919050565b7f4e487b7100000000000000000000000000000000000000000000000000000000600052601160045260246000fd5b60006112b282610e54565b91507fffffffffffffffffffffffffffffffffffffffffffffffffffffffffffffffff82036112e4576112e3611278565b5b600182019050919050565b60008160601b9050919050565b6000611307826112ef565b9050919050565b6000611319826112fc565b9050919050565b61133161132c82610fc4565b61130e565b82525050565b6000819050919050565b61135261134d82610eb7565b611337565b82525050565b6000819050919050565b61137361136e82610e54565b611358565b82525050565b60006113858287611320565b6014820191506113958286611341565b6020820191506113a58285611362565b6020820191506113b58284611362565b60208201915081905095945050505050565b60006060820190506113dc6000830186610f1a565b6113e96020830185610f44565b6113f66040830184610f44565b949350505050565b7f4e6f742072656c61796572000000000000000000000000000000000000000000600082015250565b6000611434600b83611123565b915061143f826113fe565b602082019050919050565b6000602082019050818103600083015261146381611427565b9050919050565b7f496e76616c696420737461747573000000000000000000000000000000000000600082015250565b60006114a0600e83611123565b91506114ab8261146a565b602082019050919050565b600060208201905081810360008301526114cf81611493565b9050919050565b7f4e6f74206f776e65720000000000000000000000000000000000000000000000600082015250565b600061150c600983611123565b9150611517826114d6565b602082019050919050565b6000602082019050818103600083015261153b816114ff565b9050919050565b7f4e6f7420636f6e6669726d656400000000000000000000000000000000000000600082015250565b6000611578600d83611123565b915061158382611542565b602082019050919050565b600060208201905081810360008301526115a78161156b565b905091905056fea264697066735822122015f827aadbaea97185de6782bc8b3c50ea1270e2421963cee2a8f1abb5fb3b3964736f6c63430008140033",
  "linkReferences": {},
  "deployedLinkReferences": {}
}