{
  "_format": "hh-sol-artifact-1",
  "contractName": "DataHaven",
  "sourceName": "contracts/DataHaven.sol",
  "abi": [
    {
      "inputs": [
        {
          "internalType": "address",
          "name": "_relayer",
          "type": "address"
        }
      ],
      "stateMutability": "nonpayable",
      "type": "constructor"
    },
    {
      "inputs": [],
      "name": "ECDSAInvalidSignature",
      "type": "error"
    },
    {
      "inputs": [
        {
          "internalType": "uint256",
          "name": "length",
          "type": "uint256"
        }
      ],
      "name": "ECDSAInvalidSignatureLength",
      "type": "error"
    },
    {
      "inputs": [
        {
          "internalType": "bytes32",
          "name": "s",
          "type": "bytes32"
        }
      ],
      "name": "ECDSAInvalidSignatureS",
      "type": "error"
    },
    {
      "anonymous": false,
      "inputs": [
        {
          "indexed": true,
          "internalType": "bytes32",
          "name": "requestId",
          "type": "bytes32"
        }
      ],
      "name": "AccessRevoked",
      "type": "event"
    },
    {
      "anonymous": false,
      "inputs": [
        {
          "indexed": true,
          "internalType": "bytes32",
          "name": "requestId",
          "type": "bytes32"
        }
      ],
      "name": "RequestFailed",
      "type": "event"
    },
    {
      "anonymous": false,
      "inputs": [
        {
          "indexed": true,
          "internalType": "bytes32",
          "name": "requestId",
          "type": "bytes32"
        },
        {
          "indexed": false,
          "internalType": "bytes32",
          "name": "blobId",
          "type": "bytes32"
        },
        {
          "indexed": false,
          "internalType": "bytes32",
          "name": "suiTxHash",
          "type": "bytes32"
        },
        {
          "indexed": false,
          "internalType": "bytes32",
          "name": "proofHash",
          "type": "bytes32"
        }
      ],
      "name": "StorageConfirmed",
      "type": "event"
    },
    {
      "anonymous": false,
      "inputs": [
        {
          "indexed": true,
          "internalType": "bytes32",
          "name": "requestId",
          "type": "bytes32"
        },
        {
          "indexed": true,
          "internalType": "address",
          "name": "user",
          "type": "address"
        },
        {
          "indexed": false,
          "internalType": "bytes32",
          "name": "dataHash",
          "type": "bytes32"
        },
        {
          "indexed": false,
          "internalType": "uint256",
          "name": "payment",
          "type": "uint256"
        },
        {
          "indexed": false,
          "internalType": "uint256",
          "name": "timestamp",
          "type": "uint256"
        }
      ],
      "name": "StorageRequested",
      "type": "event"
    },
    {
      "inputs": [],
      "name": "MIN_PAYMENT",
      "outputs": [
        {
          "internalType": "uint256",
          "name": "",
          "type": "uint256"
        }
      ],
      "stateMutability": "view",
      "type": "function"
    },
    {
      "inputs": [],
      "name": "admin",
      "outputs": [
        {
          "internalType": "address",
          "name": "",
          "type": "address"
        }
      ],
      "stateMutability": "view",
      "type": "function"
    },
    {
      "inputs": [
        {
          "internalType": "bytes32",
          "name": "_dataHash",
          "type": "bytes32"
        }
      ],
      "name": "initiateStorage",
      "outputs": [
        {
          "internalType": "bytes32",
          "name": "",
          "type": "bytes32"
        }
      ],
      "stateMutability": "payable",
      "type": "function"
    },
    {
      "inputs": [
        {
          "internalType": "bytes32",
          "name": "_requestId",
          "type": "bytes32"
        }
      ],
      "name": "markFailed",
      "outputs": [],
      "stateMutability": "nonpayable",
      "type": "function"
    },
    {
      "inputs": [],
      "name": "pause",
      "outputs": [],
      "stateMutability": "nonpayable",
      "type": "function"
    },
    {
      "inputs": [],
      "name": "paused",
      "outputs": [
        {
          "internalType": "bool",
          "name": "",
          "type": "bool"
        }
      ],
      "stateMutability": "view",
      "type": "function"
    },
    {
      "inputs": [],
      "name": "relayer",
      "outputs": [
        {
          "internalType": "address",
          "name": "",
          "type": "address"
        }
      ],
      "stateMutability": "view",
      "type": "function"
    },
    {
      "inputs": [],
      "name": "requestCount",
      "outputs": [
        {
          "internalType": "uint256",
          "name": "",
          "type": "uint256"
        }
      ],
      "stateMutability": "view",
      "type": "function"
    },
    {
      "inputs": [
        {
          "internalType": "bytes32",
          "name": "",
          "type": "bytes32"
        }
      ],
      "name": "requests",
      "outputs": [
        {
          "internalType": "address",
          "name": "user",
          "type": "address"
        },
        {
          "internalType": "bytes32",
          "name": "dataHash",
          "type": "bytes32"
        },
        {
          "internalType": "bytes32",
          "name": "blobId",
          "type": "bytes32"
        },
        {
          "internalType": "bytes32",
          "name": "suiTxHash",
          "type": "bytes32"
        },
        {
          "internalType": "bytes32",
          "name": "proofHash",
          "type": "bytes32"
        },
        {
          "internalType": "enum DataHaven.Status",
          "name": "status",
          "type": "uint8"
        },
        {
          "internalType": "uint256",
          "name": "payment",
          "type": "uint256"
        },
        {
          "internalType": "uint256",
          "name": "timestamp",
          "type": "uint256"
        }
      ],
      "stateMutability": "view",
      "type": "function"
    },
    {
      "inputs": [
        {
          "internalType": "bytes32",
          "name": "_requestId",
          "type": "bytes32"
        }
      ],
      "name": "revokeAccess",
      "outputs": [],
      "stateMutability": "nonpayable",
      "type": "function"
    },
    {
      "inputs": [],
      "name": "unpause",
      "outputs": [],
      "stateMutability": "nonpayable",
      "type": "function"
    },
    {
      "inputs": [
        {
          "internalType": "address",
          "name": "_relayer",
          "type": "address"
        }
      ],
      "name": "updateRelayer",
      "outputs": [],
      "stateMutability": "nonpayable",
      "type": "function"
    },
    {
      "inputs": [
        {
          "internalType": "bytes32",
          "name": "_requestId",
          "type": "bytes32"
        },
        {
          "internalType": "bytes32",
          "name": "_blobId",
          "type": "bytes32"
        },
        {
          "internalType": "bytes32",
          "name": "_suiTxHash",
          "type": "bytes32"
        },
        {
          "internalType": "bytes32",
          "name": "_proofHash",
          "type": "bytes32"
        },
        {
          "internalType": "bytes",
          "name": "_signature",
          "type": "bytes"
        }
      ],
      "name": "verifyReceipt",
      "outputs": [],
      "stateMutability": "nonpayable",
      "type": "function"
    },
    {
      "inputs": [
        {
          "internalType": "uint256",
          "name": "_amount",
          "type": "uint256"
        }
      ],
      "name": "withdraw",
      "outputs": [],
      "stateMutability": "nonpayable",
      "type": "function"
    },
    {
      "stateMutability": "payable",
      "type": "receive"
    }
  ],
  "bytecode": "0x60806040523480156200001157600080fd5b5060405162001ef338038062001ef3833981810160405281019062000037919062000129565b336000806101000a81548173ffffffffffffffffffffffffffffffffffffffff021916908373ffffffffffffffffffffffffffffffffffffffff16021790555080600160006101000a81548173ffffffffffffffffffffffffffffffffffffffff021916908373ffffffffffffffffffffffffffffffffffffffff160217905550506200015b565b600080fd5b600073ffffffffffffffffffffffffffffffffffffffff82169050919050565b6000620000f182620000c4565b9050919050565b6200010381620000e4565b81146200010f57600080fd5b50565b6000815190506200012381620000f8565b92915050565b600060208284031215620001425762000141620000bf565b5b6000620001528482850162000112565b91505092915050565b611d88806200016b6000396000f3fe6080604052600436106100e15760003560e01c80638456cb591161007f5780639d866985116100595780639d86698514610270578063b1263ada146102b4578063eb566e91146102dd578063f851a44014610308576100e8565b80638456cb59146102075780638f83ab131461021e578063925ed1a114610247576100e8565b80635badbe4c116100bb5780635badbe4c1461015d5780635c975abb1461018857806382f0d8ee146101b35780638406c079146101dc576100e8565b80632e1a7d4d146100ed5780633f4ba83a1461011657806351c65fef1461012d576100e8565b366100e857005b600080fd5b3480156100f957600080fd5b50610114600480360381019061010f9190611257565b610333565b005b34801561012257600080fd5b5061012b61042b565b005b610147600480360381019061014291906112ba565b6104d6565b60405161015491906112f6565b60405180910390f35b34801561016957600080fd5b5061017261074a565b60405161017f9190611320565b60405180910390f35b34801561019457600080fd5b5061019d610750565b6040516101aa9190611356565b60405180910390f35b3480156101bf57600080fd5b506101da60048036038101906101d591906114b7565b610763565b005b3480156101e857600080fd5b506101f161097b565b6040516101fe919061158f565b60405180910390f35b34801561021357600080fd5b5061021c6109a1565b005b34801561022a57600080fd5b50610245600480360381019061024091906115d6565b610a4c565b005b34801561025357600080fd5b5061026e600480360381019061026991906112ba565b610b1e565b005b34801561027c57600080fd5b50610297600480360381019061029291906112ba565b610d0a565b6040516102ab98979695949392919061167a565b60405180910390f35b3480156102c057600080fd5b506102db60048036038101906102d691906112ba565b610d7f565b005b3480156102e957600080fd5b506102f2610efe565b6040516102ff9190611320565b60405180910390f35b34801561031457600080fd5b5061031d610f09565b60405161032a919061158f565b60405180910390f35b60008054906101000a900473ffffffffffffffffffffffffffffffffffffffff1673ffffffffffffffffffffffffffffffffffffffff163373ffffffffffffffffffffffffffffffffffffffff16146103c1576040517f08c379a00000000000000000000000000000000000000000000000000000000081526004016103b890611755565b60405180910390fd5b60008054906101000a900473ffffffffffffffffffffffffffffffffffffffff1673ffffffffffffffffffffffffffffffffffffffff166108fc829081150290604051600060405180830381858888f19350505050158015610427573d6000803e3d6000fd5b5050565b60008054906101000a900473ffffffffffffffffffffffffffffffffffffffff1673ffffffffffffffffffffffffffffffffffffffff163373ffffffffffffffffffffffffffffffffffffffff16146104b9576040517f08c379a00000000000000000000000000000000000000000000000000000000081526004016104b090611755565b60405180910390fd5b6000600360006101000a81548160ff021916908315150217905550565b6000600360009054906101000a900460ff1615610528576040517f08c379a000000000000000000000000000000000000000000000000000000000815260040161051f906117c1565b60405180910390fd5b66038d7ea4c68000341015610572576040517f08c379a00000000000000000000000000000000000000000000000000000000081526004016105699061182d565b60405180910390fd5b60003383600260008154809291906105899061187c565b91905055426040516020016105a1949392919061194e565b6040516020818303038152906040528051906020012090506040518061010001604052803373ffffffffffffffffffffffffffffffffffffffff1681526020018481526020016000801b81526020016000801b81526020016000801b81526020016000600381111561061657610615611603565b5b8152602001348152602001428152506004600083815260200190815260200160002060008201518160000160006101000a81548173ffffffffffffffffffffffffffffffffffffffff021916908373ffffffffffffffffffffffffffffffffffffffff1602179055506020820151816001015560408201518160020155606082015181600301556080820151816004015560a08201518160050160006101000a81548160ff021916908360038111156106d2576106d1611603565b5b021790555060c0820151816006015560e082015181600701559050503373ffffffffffffffffffffffffffffffffffffffff16817f6df84f6d490512b2c1f5069ab6ab8ff2562f796f4ab608b220f1988ef76bcaaf8534426040516107399392919061199c565b60405180910390a380915050919050565b60025481565b600360009054906101000a900460ff1681565b60006004600087815260200190815260200160002090506000600381111561078e5761078d611603565b5b8160050160009054906101000a900460ff1660038111156107b2576107b1611603565b5b146107f2576040517f08c379a00000000000000000000000000000000000000000000000000000000081526004016107e990611a1f565b60405180910390fd5b60008686868660405160200161080b9493929190611a3f565b6040516020818303038152906040528051906020012090506000816040516020016108369190611ae4565b604051602081830303815290604052805190602001209050600061085a8286610f2d565b9050600160009054906101000a900473ffffffffffffffffffffffffffffffffffffffff1673ffffffffffffffffffffffffffffffffffffffff168173ffffffffffffffffffffffffffffffffffffffff16146108ec576040517f08c379a00000000000000000000000000000000000000000000000000000000081526004016108e390611b56565b60405180910390fd5b87846002018190555086846003018190555085846004018190555060018460050160006101000a81548160ff0219169083600381111561092f5761092e611603565b5b0217905550887fa050751200bd187afc96591c43a0e34c0adca05e5b8f6112c02b37d2f0e0862789898960405161096893929190611b76565b60405180910390a2505050505050505050565b600160009054906101000a900473ffffffffffffffffffffffffffffffffffffffff1681565b60008054906101000a900473ffffffffffffffffffffffffffffffffffffffff1673ffffffffffffffffffffffffffffffffffffffff163373ffffffffffffffffffffffffffffffffffffffff1614610a2f576040517f08c379a0000000000000000000000000000000000000000000000000000000008152600401610a2690611755565b60405180910390fd5b6001600360006101000a81548160ff021916908315150217905550565b60008054906101000a900473ffffffffffffffffffffffffffffffffffffffff1673ffffffffffffffffffffffffffffffffffffffff163373ffffffffffffffffffffffffffffffffffffffff1614610ada576040517f08c379a0000000000000000000000000000000000000000000000000000000008152600401610ad190611755565b60405180910390fd5b80600160006101000a81548173ffffffffffffffffffffffffffffffffffffffff021916908373ffffffffffffffffffffffffffffffffffffffff16021790555050565b600160009054906101000a900473ffffffffffffffffffffffffffffffffffffffff1673ffffffffffffffffffffffffffffffffffffffff163373ffffffffffffffffffffffffffffffffffffffff1614610bae576040517f08c379a0000000000000000000000000000000000000000000000000000000008152600401610ba590611bf9565b60405180910390fd5b600060046000838152602001908152602001600020905060006003811115610bd957610bd8611603565b5b8160050160009054906101000a900460ff166003811115610bfd57610bfc611603565b5b14610c3d576040517f08c379a0000000000000000000000000000000000000000000000000000000008152600401610c3490611a1f565b60405180910390fd5b60028160050160006101000a81548160ff02191690836003811115610c6557610c64611603565b5b02179055508060000160009054906101000a900473ffffffffffffffffffffffffffffffffffffffff1673ffffffffffffffffffffffffffffffffffffffff166108fc82600601549081150290604051600060405180830381858888f19350505050158015610cd8573d6000803e3d6000fd5b50817f4769361a442504ecaf038f35e119bcccdd5e42096b24c09e3c17fd17c6684c0260405160405180910390a25050565b60046020528060005260406000206000915090508060000160009054906101000a900473ffffffffffffffffffffffffffffffffffffffff16908060010154908060020154908060030154908060040154908060050160009054906101000a900460ff16908060060154908060070154905088565b60006004600083815260200190815260200160002090503373ffffffffffffffffffffffffffffffffffffffff168160000160009054906101000a900473ffffffffffffffffffffffffffffffffffffffff1673ffffffffffffffffffffffffffffffffffffffff1614610e28576040517f08c379a0000000000000000000000000000000000000000000000000000000008152600401610e1f90611c65565b60405180910390fd5b60016003811115610e3c57610e3b611603565b5b8160050160009054906101000a900460ff166003811115610e6057610e5f611603565b5b14610ea0576040517f08c379a0000000000000000000000000000000000000000000000000000000008152600401610e9790611cd1565b60405180910390fd5b60038160050160006101000a81548160ff02191690836003811115610ec857610ec7611603565b5b0217905550817f0135da073807bb75b5ac08972e9dd63b72d73a01c65a5ed22fc25a53ed750d2c60405160405180910390a25050565b66038d7ea4c6800081565b60008054906101000a900473ffffffffffffffffffffffffffffffffffffffff1681565b600080600080610f3d8686610f59565b925092509250610f4d8282610fb5565b82935050505092915050565b60008060006041845103610f9e5760008060006020870151925060408701519150606087015160001a9050610f9088828585611119565b955095509550505050610fae565b60006002855160001b9250925092505b9250925092565b60006003811115610fc957610fc8611603565b5b826003811115610fdc57610fdb611603565b5b03156111155760016003811115610ff657610ff5611603565b5b82600381111561100957611008611603565b5b03611040576040517ff645eedf00000000000000000000000000000000000000000000000000000000815260040160405180910390fd5b6002600381111561105457611053611603565b5b82600381111561106757611066611603565b5b036110ac578060001c6040517ffce698f70000000000000000000000000000000000000000000000000000000081526004016110a39190611320565b60405180910390fd5b6003808111156110bf576110be611603565b5b8260038111156110d2576110d1611603565b5b0361111457806040517fd78bce0c00000000000000000000000000000000000000000000000000000000815260040161110b91906112f6565b60405180910390fd5b5b5050565b60008060007f7fffffffffffffffffffffffffffffff5d576e7357a4501ddfe92f46681b20a08460001c1115611159576000600385925092509250611203565b60006001888888886040516000815260200160405260405161117e9493929190611d0d565b6020604051602081039080840390855afa1580156111a0573d6000803e3d6000fd5b505050602060405103519050600073ffffffffffffffffffffffffffffffffffffffff168173ffffffffffffffffffffffffffffffffffffffff16036111f457600060016000801b93509350935050611203565b8060008060001b935093509350505b9450945094915050565b6000604051905090565b600080fd5b600080fd5b6000819050919050565b61123481611221565b811461123f57600080fd5b50565b6000813590506112518161122b565b92915050565b60006020828403121561126d5761126c611217565b5b600061127b84828501611242565b91505092915050565b6000819050919050565b61129781611284565b81146112a257600080fd5b50565b6000813590506112b48161128e565b92915050565b6000602082840312156112d0576112cf611217565b5b60006112de848285016112a5565b91505092915050565b6112f081611284565b82525050565b600060208201905061130b60008301846112e7565b92915050565b61131a81611221565b82525050565b60006020820190506113356000830184611311565b92915050565b60008115159050919050565b6113508161133b565b82525050565b600060208201905061136b6000830184611347565b92915050565b600080fd5b600080fd5b6000601f19601f8301169050919050565b7f4e487b7100000000000000000000000000000000000000000000000000000000600052604160045260246000fd5b6113c48261137b565b810181811067ffffffffffffffff821117156113e3576113e261138c565b5b80604052505050565b60006113f661120d565b905061140282826113bb565b919050565b600067ffffffffffffffff8211156114225761142161138c565b5b61142b8261137b565b9050602081019050919050565b82818337600083830152505050565b600061145a61145584611407565b6113ec565b90508281526020810184848401111561147657611475611376565b5b611481848285611438565b509392505050565b600082601f83011261149e5761149d611371565b5b81356114ae848260208601611447565b91505092915050565b600080600080600060a086880312156114d3576114d2611217565b5b60006114e1888289016112a5565b95505060206114f2888289016112a5565b9450506040611503888289016112a5565b9350506060611514888289016112a5565b925050608086013567ffffffffffffffff8111156115355761153461121c565b5b61154188828901611489565b9150509295509295909350565b600073ffffffffffffffffffffffffffffffffffffffff82169050919050565b60006115798261154e565b9050919050565b6115898161156e565b82525050565b60006020820190506115a46000830184611580565b92915050565b6115b38161156e565b81146115be57600080fd5b50565b6000813590506115d0816115aa565b92915050565b6000602082840312156115ec576115eb611217565b5b60006115fa848285016115c1565b91505092915050565b7f4e487b7100000000000000000000000000000000000000000000000000000000600052602160045260246000fd5b6004811061164357611642611603565b5b50565b600081905061165482611632565b919050565b600061166482611646565b9050919050565b61167481611659565b82525050565b600061010082019050611690600083018b611580565b61169d602083018a6112e7565b6116aa60408301896112e7565b6116b760608301886112e7565b6116c460808301876112e7565b6116d160a083018661166b565b6116de60c0830185611311565b6116eb60e0830184611311565b9998505050505050505050565b600082825260208201905092915050565b7f4e6f742061646d696e0000000000000000000000000000000000000000000000600082015250565b600061173f6009836116f8565b915061174a82611709565b602082019050919050565b6000602082019050818103600083015261176e81611732565b9050919050565b7f5061757365640000000000000000000000000000000000000000000000000000600082015250565b60006117ab6006836116f8565b91506117b682611775565b602082019050919050565b600060208201905081810360008301526117da8161179e565b9050919050565b7f496e73756666696369656e74207061796d656e74000000000000000000000000600082015250565b60006118176014836116f8565b9150611822826117e1565b602082019050919050565b600060208201905081810360008301526118468161180a565b9050919050565b7f4e487b7100000000000000000000000000000000000000000000000000000000600052601160045260246000fd5b600061188782611221565b91507fffffffffffffffffffffffffffffffffffffffffffffffffffffffffffffffff82036118b9576118b861184d565b5b600182019050919050565b60008160601b9050919050565b60006118dc826118c4565b9050919050565b60006118ee826118d1565b9050919050565b6119066119018261156e565b6118e3565b82525050565b6000819050919050565b61192761192282611284565b61190c565b82525050565b6000819050919050565b61194861194382611221565b61192d565b82525050565b600061195a82876118f5565b60148201915061196a8286611916565b60208201915061197a8285611937565b60208201915061198a8284611937565b60208201915081905095945050505050565b60006060820190506119b160008301866112e7565b6119be6020830185611311565b6119cb6040830184611311565b949350505050565b7f496e76616c696420737461747573000000000000000000000000000000000000600082015250565b6000611a09600e836116f8565b9150611a14826119d3565b602082019050919050565b60006020820190508181036000830152611a38816119fc565b9050919050565b6000611a4b8287611916565b602082019150611a5b8286611916565b602082019150611a6b8285611916565b602082019150611a7b8284611916565b60208201915081905095945050505050565b600081905092915050565b7f19457468657265756d205369676e6564204d6573736167653a0a333200000000600082015250565b6000611ace601c83611a8d565b9150611ad982611a98565b601c82019050919050565b6000611aef82611ac1565b9150611afb8284611916565b60208201915081905092915050565b7f496e76616c6964207369676e6174757265000000000000000000000000000000600082015250565b6000611b406011836116f8565b9150611b4b82611b0a565b602082019050919050565b60006020820190508181036000830152611b6f81611b33565b9050919050565b6000606082019050611b8b60008301866112e7565b611b9860208301856112e7565b611ba560408301846112e7565b949350505050565b7f4e6f742072656c61796572000000000000000000000000000000000000000000600082015250565b6000611be3600b836116f8565b9150611bee82611bad565b602082019050919050565b60006020820190508181036000830152611c1281611bd6565b9050919050565b7f4e6f74206f776e65720000000000000000000000000000000000000000000000600082015250565b6000611c4f6009836116f8565b9150611c5a82611c19565b602082019050919050565b60006020820190508181036000830152611c7e81611c42565b9050919050565b7f4e6f7420636f6e6669726d656400000000000000000000000000000000000000600082015250565b6000611cbb600d836116f8565b9150611cc682611c85565b602082019050919050565b60006020820190508181036000830152611cea81611cae565b9050919050565b600060ff82169050919050565b611d0781611cf1565b82525050565b6000608082019050611d2260008301876112e7565b611d2f6020830186611cfe565b611d3c60408301856112e7565b611d4960608301846112e7565b9594505050505056fea26469706673582212203dd565ae1d8737dc3d6dde281d635794c7b64d5fe27d076504354d1ad0e8e36264736f6c63430008140033",
  "linkReferences": {},
  "deployedLinkReferences": {}
}