{"contracts/DataHaven.sol":{"DataHaven":{"abi":[{"inputs":[{"internalType":"address","name":"_relayer","type":"address"}],"stateMutability":"nonpayable","type":"constructor"},{"inputs":[],"name":"ECDSAInvalidSignature","type":"error"},{"inputs":[{"internalType":"uint256","name":"length","type":"uint256"}],"name":"ECDSAInvalidSignatureLength","type":"error"},{"inputs":[{"internalType":"bytes32","name":"s","type":"bytes32"}],"name":"ECDSAInvalidSignatureS","type":"error"},{"anonymous":false,"inputs":[{"indexed":true,"internalType":"bytes32","name":"requestId","type":"bytes32"}],"name":"AccessRevoked","type":"event"},{"anonymous":false,"inputs":[{"indexed":true,"internalType":"bytes32","name":"requestId","type":"bytes32"}],"name":"RequestFailed","type":"event"},{"anonymous":false,"inputs":[{"indexed":true,"internalType":"bytes32","name":"requestId","type":"bytes32"},{"indexed":false,"internalType":"bytes32","name":"blobId","type":"bytes32"},{"indexed":false,"internalType":"bytes32","name":"suiTxHash","type":"bytes32"},{"indexed":false,"internalType":"bytes32","name":"proofHash","type":"bytes32"}],"name":"StorageConfirmed","type":"event"},{"anonymous":false,"inputs":[{"indexed":true,"internalType":"bytes32","name":"requestId","type":"bytes32"},{"indexed":true,"internalType":"address","name":"user","type":"address"},{"indexed":false,"internalType":"bytes32","name":"dataHash","type":"bytes32"},{"indexed":false,"internalType":"uint256","name":"payment","type":"uint256"},{"indexed":false,"internalType":"uint256","name":"timestamp","type":"uint256"}],"name":"StorageRequested","type":"event"},{"inputs":[],"name":"MIN_PAYMENT","outputs":[{"internalType":"uint256","name":"","type":"uint256"}],"stateMutability":"view","type":"function"},{"inputs":[],"name":"admin","outputs":[{"internalType":"address","name":"","type":"address"}],"stateMutability":"view","type":"function"},{"inputs":[{"internalType":"bytes32","name":"_dataHash","type":"bytes32"}],"name":"initiateStorage","outputs":[{"internalType":"bytes32","name":"","type":"bytes32"}],"stateMutability":"payable","type":"function"},{"inputs":[{"internalType":"bytes32","name":"_requestId","type":"bytes32"}],"name":"markFailed","outputs":[],"stateMutability":"nonpayable","type":"function"},{"inputs":[],"name":"pause","outputs":[],"stateMutability":"nonpayable","type":"function"},{"inputs":[],"name":"paused","outputs":[{"internalType":"bool","name":"","type":"bool"}],"stateMutability":"view","type":"function"},{"inputs":[],"name":"relayer","outputs":[{"internalType":"address","name":"","type":"address"}],"stateMutability":"view","type":"function"},{"inputs":[],"name":"requestCount","outputs":[{"internalType":"uint256","name":"","type":"uint256"}],"stateMutability":"view","type":"function"},{"inputs":[{"internalType":"bytes32","name":"","type":"bytes32"}],"name":"requests","outputs":[{"internalType":"address","name":"user","type":"address"},{"internalType":"bytes32","name":"dataHash","type":"bytes32"},{"internalType":"bytes32","name":"blobId","type":"bytes32"},{"internalType":"bytes32","name":"suiTxHash","type":"bytes32"},{"internalType":"bytes32","name":"proofHash","type":"bytes32"},{"internalType":"enum DataHaven.Status","name":"status","type":"uint8"},{"internalType":"uint256","name":"payment","type":"uint256"},{"internalType":"uint256","name":"timestamp","type":"uint256"}],"stateMutability":"view","type":"function"},{"inputs":[{"internalType":"bytes32","name":"_requestId","type":"bytes32"}],"name":"revokeAccess","outputs":[],"stateMutability":"nonpayable","type":"function"},{"inputs":[],"name":"unpause","outputs":[],"stateMutability":"nonpayable","type":"function"},{"inputs":[{"internalType":"address","name":"_relayer","type":"address"}],"name":"updateRelayer","outputs":[],"stateMutability":"nonpayable","type":"function"},{"inputs":[{"internalType":"bytes32","name":"_requestId","type":"bytes32"},{"internalType":"bytes32","name":"_blobId","type":"bytes32"},{"internalType":"bytes32","name":"_suiTxHash","type":"bytes32"},{"internalType":"bytes32","name":"_proofHash","type":"bytes32"},{"internalType":"bytes","name":"_signature","type":"bytes"}],"name":"verifyReceipt","outputs":[],"stateMutability":"nonpayable","type":"function"},{"inputs":[{"internalType":"uint256","name":"_amount","type":"uint256"}],"name":"withdraw","outputs":[],"stateMutability":"nonpayable","type":"function"},{"stateMutability":"payable","type":"receive"}],"evm":{"bytecode":{"linkReferences":{},"object":"60806040523480156200001157600080fd5b5060405162001ef338038062001ef3833981810160405281019062000037919062000129565b336000806101000a81548173ffffffffffffffffffffffffffffffffffffffff021916908373ffffffffffffffffffffffffffffffffffffffff16021790555080600160006101000a81548173ffffffffffffffffffffffffffffffffffffffff021916908373ffffffffffffffffffffffffffffffffffffffff160217905550506200015b565b600080fd5b600073ffffffffffffffffffffffffffffffffffffffff82169050919050565b6000620000f182620000c4565b9050919050565b6200010381620000e4565b81146200010f57600080fd5b50565b6000815190506200012381620000f8565b92915050565b600060208284031215620001425762000141620000bf565b5b6000620001528482850162000112565b91505092915050565b611d88806200016b6000396000f3fe6080604052600436106100e15760003560e01c80638456cb591161007f5780639d866985116100595780639d86698514610270578063b1263ada146102b4578063eb566e91146102dd578063f851a44014610308576100e8565b80638456cb59146102075780638f83ab131461021e578063925ed1a114610247576100e8565b80635badbe4c116100bb5780635badbe4c1461015d5780635c975abb1461018857806382f0d8ee146101b35780638406c079146101dc576100e8565b80632e1a7d4d146100ed5780633f4ba83a1461011657806351c65fef1461012d576100e8565b366100e857005b600080fd5b3480156100f957600080fd5b50610114600480360381019061010f9190611257565b610333565b005b34801561012257600080fd5b5061012b61042b565b005b610147600480360381019061014291906112ba565b6104d6565b60405161015491906112f6565b60405180910390f35b34801561016957600080fd5b5061017261074a565b60405161017f9190611320565b60405180910390f35b34801561019457600080fd5b5061019d610750565b6040516101aa9190611356565b60405180910390f35b3480156101bf57600080fd5b506101da60048036038101906101d591906114b7565b610763565b005b3480156101e857600080fd5b506101f161097b565b6040516101fe919061158f565b60405180910390f35b34801561021357600080fd5b5061021c6109a1565b005b34801561022a57600080fd5b50610245600480360381019061024091906115d6565b610a4c565b005b34801561025357600080fd5b5061026e600480360381019061026991906112ba565b610b1e565b005b34801561027c57600080fd5b50610297600480360381019061029291906112ba565b610d0a565b6040516102ab98979695949392919061167a565b60405180910390f35b3480156102c057600080fd5b506102db60048036038101906102d691906112ba565b610d7f565b005b3480156102e957600080fd5b506102f2610efe565b6040516102ff9190611320565b60405180910390f35b34801561031457600080fd5b5061031d610f09565b60405161032a919061158f565b60405180910390f35b60008054906101000a900473ffffffffffffffffffffffffffffffffffffffff1673ffffffffffffffffffffffffffffffffffffffff163373ffffffffffffffffffffffffffffffffffffffff16146103c1576040517f08c379a00000000000000000000000000000000000000000000000000000000081526004016103b890611755565b60405180910390fd5b60008054906101000a900473ffffffffffffffffffffffffffffffffffffffff1673ffffffffffffffffffffffffffffffffffffffff166108fc829081150290604051600060405180830381858888f19350505050158015610427573d6000803e3d6000fd5b5050565b60008054906101000a900473ffffffffffffffffffffffffffffffffffffffff1673ffffffffffffffffffffffffffffffffffffffff163373ffffffffffffffffffffffffffffffffffffffff16146104b9576040517f08c379a00000000000000000000000000000000000000000000000000000000081526004016104b090611755565b60405180910390fd5b6000600360006101000a81548160ff021916908315150217905550565b6000600360009054906101000a900460ff1615610528576040517f08c379a000000000000000000000000000000000000000000000000000000000815260040161051f906117c1565b60405180910390fd5b66038d7ea4c68000341015610572576040517f08c379a00000000000000000000000000000000000000000000000000000000081526004016105699061182d565b60405180910390fd5b60003383600260008154809291906105899061187c565b91905055426040516020016105a1949392919061194e565b6040516020818303038152906040528051906020012090506040518061010001604052803373ffffffffffffffffffffffffffffffffffffffff1681526020018481526020016000801b81526020016000801b81526020016000801b81526020016000600381111561061657610615611603565b5b8152602001348152602001428152506004600083815260200190815260200160002060008201518160000160006101000a81548173ffffffffffffffffffffffffffffffffffffffff021916908373ffffffffffffffffffffffffffffffffffffffff1602179055506020820151816001015560408201518160020155606082015181600301556080820151816004015560a08201518160050160006101000a81548160ff021916908360038111156106d2576106d1611603565b5b021790555060c0820151816006015560e082015181600701559050503373ffffffffffffffffffffffffffffffffffffffff16817f6df84f6d490512b2c1f5069ab6ab8ff2562f796f4ab608b220f1988ef76bcaaf8534426040516107399392919061199c565b60405180910390a380915050919050565b60025481565b600360009054906101000a900460ff1681565b60006004600087815260200190815260200160002090506000600381111561078e5761078d611603565b5b8160050160009054906101000a900460ff1660038111156107b2576107b1611603565b5b146107f2576040517f08c379a00000000000000000000000000000000000000000000000000000000081526004016107e990611a1f565b60405180910390fd5b60008686868660405160200161080b9493929190611a3f565b6040516020818303038152906040528051906020012090506000816040516020016108369190611ae4565b604051602081830303815290604052805190602001209050600061085a8286610f2d565b9050600160009054906101000a900473ffffffffffffffffffffffffffffffffffffffff1673ffffffffffffffffffffffffffffffffffffffff168173ffffffffffffffffffffffffffffffffffffffff16146108ec576040517f08c379a00000000000000000000000000000000000000000000000000000000081526004016108e390611b56565b60405180910390fd5b87846002018190555086846003018190555085846004018190555060018460050160006101000a81548160ff0219169083600381111561092f5761092e611603565b5b0217905550887fa050751200bd187afc96591c43a0e34c0adca05e5b8f6112c02b37d2f0e0862789898960405161096893929190611b76565b60405180910390a2505050505050505050565b600160009054906101000a900473ffffffffffffffffffffffffffffffffffffffff1681565b60008054906101000a900473ffffffffffffffffffffffffffffffffffffffff1673ffffffffffffffffffffffffffffffffffffffff163373ffffffffffffffffffffffffffffffffffffffff1614610a2f576040517f08c379a0000000000000000000000000000000000000000000000000000000008152600401610a2690611755565b60405180910390fd5b6001600360006101000a81548160ff021916908315150217905550565b60008054906101000a900473ffffffffffffffffffffffffffffffffffffffff1673ffffffffffffffffffffffffffffffffffffffff163373ffffffffffffffffffffffffffffffffffffffff1614610ada576040517f08c379a0000000000000000000000000000000000000000000000000000000008152600401610ad190611755565b60405180910390fd5b80600160006101000a81548173ffffffffffffffffffffffffffffffffffffffff021916908373ffffffffffffffffffffffffffffffffffffffff16021790555050565b600160009054906101000a900473ffffffffffffffffffffffffffffffffffffffff1673ffffffffffffffffffffffffffffffffffffffff163373ffffffffffffffffffffffffffffffffffffffff1614610bae576040517f08c379a0000000000000000000000000000000000000000000000000000000008152600401610ba590611bf9565b60405180910390fd5b600060046000838152602001908152602001600020905060006003811115610bd957610bd8611603565b5b8160050160009054906101000a900460ff166003811115610bfd57610bfc611603565b5b14610c3d576040517f08c379a0000000000000000000000000000000000000000000000000000000008152600401610c3490611a1f565b60405180910390fd5b60028160050160006101000a81548160ff02191690836003811115610c6557610c64611603565b5b02179055508060000160009054906101000a900473ffffffffffffffffffffffffffffffffffffffff1673ffffffffffffffffffffffffffffffffffffffff166108fc82600601549081150290604051600060405180830381858888f19350505050158015610cd8573d6000803e3d6000fd5b50817f4769361a442504ecaf038f35e119bcccdd5e42096b24c09e3c17fd17c6684c0260405160405180910390a25050565b60046020528060005260406000206000915090508060000160009054906101000a900473ffffffffffffffffffffffffffffffffffffffff16908060010154908060020154908060030154908060040154908060050160009054906101000a900460ff16908060060154908060070154905088565b60006004600083815260200190815260200160002090503373ffffffffffffffffffffffffffffffffffffffff168160000160009054906101000a900473ffffffffffffffffffffffffffffffffffffffff1673ffffffffffffffffffffffffffffffffffffffff1614610e28576040517f08c379a0000000000000000000000000000000000000000000000000000000008152600401610e1f90611c65565b60405180910390fd5b60016003811115610e3c57610e3b611603565b5b8160050160009054906101000a900460ff166003811115610e6057610e5f611603565b5b14610ea0576040517f08c379a0000000000000000000000000000000000000000000000000000000008152600401610e9790611cd1565b60405180910390fd5b60038160050160006101000a81548160ff02191690836003811115610ec857610ec7611603565b5b0217905550817f0135da073807bb75b5ac08972e9dd63b72d73a01c65a5ed22fc25a53ed750d2c60405160405180910390a25050565b66038d7ea4c6800081565b60008054906101000a900473ffffffffffffffffffffffffffffffffffffffff1681565b600080600080610f3d8686610f59565b925092509250610f4d8282610fb5565b82935050505092915050565b60008060006041845103610f9e5760008060006020870151925060408701519150606087015160001a9050610f9088828585611119565b955095509550505050610fae565b60006002855160001b9250925092505b9250925092565b60006003811115610fc957610fc8611603565b5b826003811115610fdc57610fdb611603565b5b03156111155760016003811115610ff657610ff5611603565b5b82600381111561100957611008611603565b5b03611040576040517ff645eedf00000000000000000000000000000000000000000000000000000000815260040160405180910390fd5b6002600381111561105457611053611603565b5b82600381111561106757611066611603565b5b036110ac578060001c6040517ffce698f70000000000000000000000000000000000000000000000000000000081526004016110a39190611320565b60405180910390fd5b6003808111156110bf576110be611603565b5b8260038111156110d2576110d1611603565b5b0361111457806040517fd78bce0c00000000000000000000000000000000000000000000000000000000815260040161110b91906112f6565b60405180910390fd5b5b5050565b60008060007f7fffffffffffffffffffffffffffffff5d576e7357a4501ddfe92f46681b20a08460001c1115611159576000600385925092509250611203565b60006001888888886040516000815260200160405260405161117e9493929190611d0d565b6020604051602081039080840390855afa1580156111a0573d6000803e3d6000fd5b505050602060405103519050600073ffffffffffffffffffffffffffffffffffffffff168173ffffffffffffffffffffffffffffffffffffffff16036111f457600060016000801b93509350935050611203565b8060008060001b935093509350505b9450945094915050565b6000604051905090565b600080fd5b600080fd5b6000819050919050565b61123481611221565b811461123f57600080fd5b50565b6000813590506112518161122b565b92915050565b60006020828403121561126d5761126c611217565b5b600061127b84828501611242565b91505092915050565b6000819050919050565b61129781611284565b81146112a257600080fd5b50565b6000813590506112b48161128e565b92915050565b6000602082840312156112d0576112cf611217565b5b60006112de848285016112a5565b91505092915050565b6112f081611284565b82525050565b600060208201905061130b60008301846112e7565b92915050565b61131a81611221565b82525050565b60006020820190506113356000830184611311565b92915050565b60008115159050919050565b6113508161133b565b82525050565b600060208201905061136b6000830184611347565b92915050565b600080fd5b600080fd5b6000601f19601f8301169050919050565b7f4e487b7100000000000000000000000000000000000000000000000000000000600052604160045260246000fd5b6113c48261137b565b810181811067ffffffffffffffff821117156113e3576113e261138c565b5b80604052505050565b60006113f661120d565b905061140282826113bb565b919050565b600067ffffffffffffffff8211156114225761142161138c565b5b61142b8261137b565b9050602081019050919050565b82818337600083830152505050565b600061145a61145584611407565b6113ec565b90508281526020810184848401111561147657611475611376565b5b611481848285611438565b509392505050565b600082601f83011261149e5761149d611371565b5b81356114ae848260208601611447565b91505092915050565b600080600080600060a086880312156114d3576114d2611217565b5b60006114e1888289016112a5565b95505060206114f2888289016112a5565b9450506040611503888289016112a5565b9350506060611514888289016112a5565b925050608086013567ffffffffffffffff8111156115355761153461121c565b5b61154188828901611489565b9150509295509295909350565b600073ffffffffffffffffffffffffffffffffffffffff82169050919050565b60006115798261154e565b9050919050565b6115898161156e565b82525050565b60006020820190506115a46000830184611580565b92915050565b6115b38161156e565b81146115be57600080fd5b50565b6000813590506115d0816115aa565b92915050565b6000602082840312156115ec576115eb611217565b5b60006115fa848285016115c1565b91505092915050565b7f4e487b7100000000000000000000000000000000000000000000000000000000600052602160045260246000fd5b6004811061164357611642611603565b5b50565b600081905061165482611632565b919050565b600061166482611646565b9050919050565b61167481611659565b82525050565b600061010082019050611690600083018b611580565b61169d602083018a6112e7565b6116aa60408301896112e7565b6116b760608301886112e7565b6116c460808301876112e7565b6116d160a083018661166b565b6116de60c0830185611311565b6116eb60e0830184611311565b9998505050505050505050565b600082825260208201905092915050565b7f4e6f742061646d696e0000000000000000000000000000000000000000000000600082015250565b600061173f6009836116f8565b915061174a82611709565b602082019050919050565b6000602082019050818103600083015261176e81611732565b9050919050565b7f5061757365640000000000000000000000000000000000000000000000000000600082015250565b60006117ab6006836116f8565b91506117b682611775565b602082019050919050565b600060208201905081810360008301526117da8161179e565b9050919050565b7f496e73756666696369656e74207061796d656e74000000000000000000000000600082015250565b60006118176014836116f8565b9150611822826117e1565b602082019050919050565b600060208201905081810360008301526118468161180a565b9050919050565b7f4e487b7100000000000000000000000000000000000000000000000000000000600052601160045260246000fd5b600061188782611221565b91507fffffffffffffffffffffffffffffffffffffffffffffffffffffffffffffffff82036118b9576118b861184d565b5b600182019050919050565b60008160601b9050919050565b60006118dc826118c4565b9050919050565b60006118ee826118d1565b9050919050565b6119066119018261156e565b6118e3565b82525050565b6000819050919050565b61192761192282611284565b61190c565b82525050565b6000819050919050565b61194861194382611221565b61192d565b82525050565b600061195a82876118f5565b60148201915061196a8286611916565b60208201915061197a8285611937565b60208201915061198a8284611937565b60208201915081905095945050505050565b60006060820190506119b160008301866112e7565b6119be6020830185611311565b6119cb6040830184611311565b949350505050565b7f496e76616c696420737461747573000000000000000000000000000000000000600082015250565b6000611a09600e836116f8565b9150611a14826119d3565b602082019050919050565b60006020820190508181036000830152611a38816119fc565b9050919050565b6000611a4b8287611916565b602082019150611a5b8286611916565b602082019150611a6b8285611916565b602082019150611a7b8284611916565b60208201915081905095945050505050565b600081905092915050565b7f19457468657265756d205369676e6564204d6573736167653a0a333200000000600082015250565b6000611ace601c83611a8d565b9150611ad982611a98565b601c82019050919050565b6000611aef82611ac1565b9150611afb8284611916565b60208201915081905092915050565b7f496e76616c6964207369676e6174757265000000000000000000000000000000600082015250565b6000611b406011836116f8565b9150611b4b82611b0a565b602082019050919050565b60006020820190508181036000830152611b6f81611b33565b9050919050565b6000606082019050611b8b60008301866112e7565b611b9860208301856112e7565b611ba560408301846112e7565b949350505050565b7f4e6f742072656c61796572000000000000000000000000000000000000000000600082015250565b6000611be3600b836116f8565b9150611bee82611bad565b602082019050919050565b60006020820190508181036000830152611c1281611bd6565b9050919050565b7f4e6f74206f776e65720000000000000000000000000000000000000000000000600082015250565b6000611c4f6009836116f8565b9150611c5a82611c19565b602082019050919050565b60006020820190508181036000830152611c7e81611c42565b9050919050565b7f4e6f7420636f6e6669726d656400000000000000000000000000000000000000600082015250565b6000611cbb600d836116f8565b9150611cc682611c85565b602082019050919050565b60006020820190508181036000830152611cea81611cae565b9050919050565b600060ff82169050919050565b611d0781611cf1565b82525050565b6000608082019050611d2260008301876112e7565b611d2f6020830186611cfe565b611d3c60408301856112e7565b611d4960608301846112e7565b9594505050505056fea26469706673582212203dd565ae1d8737dc3d6dde281d635794c7b64d5fe27d076504354d1ad0e8e36264736f6c63430008140033","opcodes":"PUSH1 0x80 PUSH1 0x40 MSTORE CALLVALUE DUP1 ISZERO PUSH3 0x11 JUMPI PUSH1 0x0 DUP1 REVERT JUMPDEST POP PUSH1 0x40 MLOAD PUSH3 0x1EF3 CODESIZE SUB DUP1 PUSH3 0x1EF3 DUP4 CODECOPY DUP2 DUP2 ADD PUSH1 0x40 MSTORE DUP2 ADD SWAP1 PUSH3 0x37 SWAP2 SWAP1 PUSH3 0x129 JUMP JUMPDEST CALLER PUSH1 0x0 DUP1 PUSH2 0x100 EXP DUP2 SLOAD DUP2 PUSH20 0xFFFFFFFFFFFFFFFFFFFFFFFFFFFFFFFFFFFFFFFF MUL NOT AND SWAP1 DUP4 PUSH20 0xFFFFFFFFFFFFFFFFFFFFFFFFFFFFFFFFFFFFFFFF AND MUL OR SWAP1 SSTORE POP DUP1 PUSH1 0x1 PUSH1 0x0 PUSH2 0x100 EXP DUP2 SLOAD DUP2 PUSH20 0xFFFFFFFFFFFFFFFFFFFFFFFFFFFFFFFFFFFFFFFF MUL NOT AND SWAP1 DUP4 PUSH20 0xFFFFFFFFFFFFFFFFFFFFFFFFFFFFFFFFFFFFFFFF AND MUL OR SWAP1 SSTORE POP POP PUSH3 0x15B JUMP JUMPDEST PUSH1 0x0 DUP1 REVERT JUMPDEST PUSH1 0x0 PUSH20 0xFFFFFFFFFFFFFFFFFFFFFFFFFFFFFFFFFFFFFFFF DUP3 AND SWAP1 POP SWAP2 SWAP1 POP JUMP JUMPDEST PUSH1 0x0 PUSH3 0xF1 DUP3 PUSH3 0xC4 JUMP JUMPDEST SWAP1 POP SWAP2 SWAP1 POP JUMP JUMPDEST PUSH3 0x103 DUP2 PUSH3 0xE4 JUMP JUMPDEST DUP2 EQ PUSH3 0x10F JUMPI PUSH1 0x0 DUP1 REVERT JUMPDEST POP JUMP JUMPDEST PUSH1 0x0 DUP2 MLOAD SWAP1 POP PUSH3 0x123 DUP2 PUSH3 0xF8 JUMP JUMPDEST SWAP3 SWAP2 POP POP JUMP JUMPDEST PUSH1 0x0 PUSH1 0x20 DUP3 DUP5 SUB SLT ISZERO PUSH3 0x142 JUMPI PUSH3 0x141 PUSH3 0xBF JUMP JUMPDEST JUMPDEST PUSH1 0x0 PUSH3 0x152 DUP5 DUP3 DUP6 ADD PUSH3 0x112 JUMP JUMPDEST SWAP2 POP POP SWAP3 SWAP2 POP POP JUMP JUMPDEST PUSH2 0x1D88 DUP1 PUSH3 0x16B PUSH1 0x0 CODECOPY PUSH1 0x0 RETURN INVALID PUSH1 0x80 PUSH1 0x40 MSTORE PUSH1 0x4 CALLDATASIZE LT PUSH2 0xE1 JUMPI PUSH1 0x0 CALLDATALOAD PUSH1 0xE0 SHR DUP1 PUSH4 0x8456CB59 GT PUSH2 0x7F JUMPI DUP1 PUSH4 0x9D866985 GT PUSH2 0x59 JUMPI DUP1 PUSH4 0x9D866985 EQ PUSH2 0x270 JUMPI DUP1 PUSH4 0xB1263ADA EQ PUSH2 0x2B4 JUMPI DUP1 PUSH4 0xEB566E91 EQ PUSH2 0x2DD JUMPI DUP1 PUSH4 0xF851A440 EQ PUSH2 0x308 JUMPI PUSH2 0xE8 JUMP JUMPDEST DUP1 PUSH4 0x8456CB59 EQ PUSH2 0x207 JUMPI DUP1 PUSH4 0x8F83AB13 EQ PUSH2 0x21E JUMPI DUP1 PUSH4 0x925ED1A1 EQ PUSH2 0x247 JUMPI PUSH2 0xE8 JUMP JUMPDEST DUP1 PUSH4 0x5BADBE4C GT PUSH2 0xBB JUMPI DUP1 PUSH4 0x5BADBE4C EQ PUSH2 0x15D JUMPI DUP1 PUSH4 0x5C975ABB EQ PUSH2 0x188 JUMPI DUP1 PUSH4 0x82F0D8EE EQ PUSH2 0x1B3 JUMPI DUP1 PUSH4 0x8406C079 EQ PUSH2 0x1DC JUMPI PUSH2 0xE8 JUMP JUMPDEST DUP1 PUSH4 0x2E1A7D4D EQ PUSH2 0xED JUMPI DUP1 PUSH4 0x3F4BA83A EQ PUSH2 0x116 JUMPI DUP1 PUSH4 0x51C65FEF EQ PUSH2 0x12D JUMPI PUSH2 0xE8 JUMP JUMPDEST CALLDATASIZE PUSH2 0xE8 JUMPI STOP JUMPDEST PUSH1 0x0 DUP1 REVERT JUMPDEST CALLVALUE DUP1 ISZERO PUSH2 0xF9 JUMPI PUSH1 0x0 DUP1 REVERT JUMPDEST POP PUSH2 0x114 PUSH1 0x4 DUP1 CALLDATASIZE SUB DUP2 ADD SWAP1 PUSH2 0x10F SWAP2 SWAP1 PUSH2 0x1257 JUMP JUMPDEST PUSH2 0x333 JUMP JUMPDEST STOP JUMPDEST CALLVALUE DUP1 ISZERO PUSH2 0x122 JUMPI PUSH1 0x0 DUP1 REVERT JUMPDEST POP PUSH2 0x12B PUSH2 0x42B JUMP JUMPDEST STOP JUMPDEST PUSH2 0x147 PUSH1 0x4 DUP1 CALLDATASIZE SUB DUP2 ADD SWAP1 PUSH2 0x142 SWAP2 SWAP1 PUSH2 0x12BA JUMP JUMPDEST PUSH2 0x4D6 JUMP JUMPDEST PUSH1 0x40 MLOAD PUSH2 0x154 SWAP2 SWAP1 PUSH2 0x12F6 JUMP JUMPDEST PUSH1 0x40 MLOAD DUP1 SWAP2 SUB SWAP1 RETURN JUMPDEST CALLVALUE DUP1 ISZERO PUSH2 0x169 JUMPI PUSH1 0x0 DUP1 REVERT JUMPDEST POP PUSH2 0x172 PUSH2 0x74A JUMP JUMPDEST PUSH1 0x40 MLOAD PUSH2 0x17F SWAP2 SWAP1 PUSH2 0x1320 JUMP JUMPDEST PUSH1 0x40 MLOAD DUP1 SWAP2 SUB SWAP1 RETURN JUMPDEST CALLVALUE DUP1 ISZERO PUSH2 0x194 JUMPI PUSH1 0x0 DUP1 REVERT JUMPDEST POP PUSH2 0x19D PUSH2 0x750 JUMP JUMPDEST PUSH1 0x40 MLOAD PUSH2 0x1AA SWAP2 SWAP1 PUSH2 0x1356 JUMP JUMPDEST PUSH1 0x40 MLOAD DUP1 SWAP2 SUB SWAP1 RETURN JUMPDEST CALLVALUE DUP1 ISZERO PUSH2 0x1BF JUMPI PUSH1 0x0 DUP1 REVERT JUMPDEST POP PUSH2 0x1DA PUSH1 0x4 DUP1 CALLDATASIZE SUB DUP2 ADD SWAP1 PUSH2 0x1D5 SWAP2 SWAP1 PUSH2 0x14B7 JUMP JUMPDEST PUSH2 0x763 JUMP JUMPDEST STOP JUMPDEST CALLVALUE DUP1 ISZERO PUSH2 0x1E8 JUMPI PUSH1 0x0 DUP1 REVERT JUMPDEST POP PUSH2 0x1F1 PUSH2 0x97B JUMP JUMPDEST PUSH1 0x40 MLOAD PUSH2 0x1FE SWAP2 SWAP1 PUSH2 0x158F JUMP JUMPDEST PUSH1 0x40 MLOAD DUP1 SWAP2 SUB SWAP1 RETURN JUMPDEST CALLVALUE DUP1 ISZERO PUSH2 0x213 JUMPI PUSH1 0x0 DUP1 REVERT JUMPDEST POP PUSH2 0x21C PUSH2 0x9A1 JUMP JUMPDEST STOP JUMPDEST CALLVALUE DUP1 ISZERO PUSH2 0x22A JUMPI PUSH1 0x0 DUP1 REVERT JUMPDEST POP PUSH2 0x245 PUSH1 0x4 DUP1 CALLDATASIZE SUB DUP2 ADD SWAP1 PUSH2 0x240 SWAP2 SWAP1 PUSH2 0x15D6 JUMP JUMPDEST PUSH2 0xA4C JUMP JUMPDEST STOP JUMPDEST CALLVALUE DUP1 ISZERO PUSH2 0x253 JUMPI PUSH1 0x0 DUP1 REVERT JUMPDEST POP PUSH2 0x26E PUSH1 0x4 DUP1 CALLDATASIZE SUB DUP2 ADD SWAP1 PUSH2 0x269 SWAP2 SWAP1 PUSH2 0x12BA JUMP JUMPDEST PUSH2 0xB1E JUMP JUMPDEST STOP JUMPDEST CALLVALUE DUP1 ISZERO PUSH2 0x27C JUMPI PUSH1 0x0 DUP1 REVERT JUMPDEST POP PUSH2 0x297 PUSH1 0x4 DUP1 CALLDATASIZE SUB DUP2 ADD SWAP1 PUSH2 0x292 SWAP2 SWAP1 PUSH2 0x12BA JUMP JUMPDEST PUSH2 0xD0A JUMP JUMPDEST PUSH1 0x40 MLOAD PUSH2 0x2AB SWAP9 SWAP8 SWAP7 SWAP6 SWAP5 SWAP4 SWAP3 SWAP2 SWAP1 PUSH2 0x167A JUMP JUMPDEST PUSH1 0x40 MLOAD DUP1 SWAP2 SUB SWAP1 RETURN JUMPDEST CALLVALUE DUP1 ISZERO PUSH2 0x2C0 JUMPI PUSH1 0x0 DUP1 REVERT JUMPDEST POP PUSH2 0x2DB PUSH1 0x4 DUP1 CALLDATASIZE SUB DUP2 ADD SWAP1 PUSH2 0x2D6 SWAP2 SWAP1 PUSH2 0x12BA JUMP JUMPDEST PUSH2 0xD7F JUMP JUMPDEST STOP JUMPDEST CALLVALUE DUP1 ISZERO PUSH2 0x2E9 JUMPI PUSH1 0x0 DUP1 REVERT JUMPDEST POP PUSH2 0x2F2 PUSH2 0xEFE JUMP JUMPDEST PUSH1 0x40 MLOAD PUSH2 0x2FF SWAP2 SWAP1 PUSH2 0x1320 JUMP JUMPDEST PUSH1 0x40 MLOAD DUP1 SWAP2 SUB SWAP1 RETURN JUMPDEST CALLVALUE DUP1 ISZERO PUSH2 0x314 JUMPI PUSH1 0x0 DUP1 REVERT JUMPDEST POP PUSH2 0x31D PUSH2 0xF09 JUMP JUMPDEST PUSH1 0x40 MLOAD PUSH2 0x32A SWAP2 SWAP1 PUSH2 0x158F JUMP JUMPDEST PUSH1 0x40 MLOAD DUP1 SWAP2 SUB SWAP1 RETURN JUMPDEST PUSH1 0x0 DUP1 SLOAD SWAP1 PUSH2 0x100 EXP SWAP1 DIV PUSH20 0xFFFFFFFFFFFFFFFFFFFFFFFFFFFFFFFFFFFFFFFF AND PUSH20 0xFFFFFFFFFFFFFFFFFFFFFFFFFFFFFFFFFFFFFFFF AND CALLER PUSH20 0xFFFFFFFFFFFFFFFFFFFFFFFFFFFFFFFFFFFFFFFF AND EQ PUSH2 0x3C1 JUMPI PUSH1 0x40 MLOAD PUSH32 0x8C379A000000000000000000000000000000000000000000000000000000000 DUP2 MSTORE PUSH1 0x4 ADD PUSH2 0x3B8 SWAP1 PUSH2 0x1755 JUMP JUMPDEST PUSH1 0x40 MLOAD DUP1 SWAP2 SUB SWAP1 REVERT JUMPDEST PUSH1 0x0 DUP1 SLOAD SWAP1 PUSH2 0x100 EXP SWAP1 DIV PUSH20 0xFFFFFFFFFFFFFFFFFFFFFFFFFFFFFFFFFFFFFFFF AND PUSH20 0xFFFFFFFFFFFFFFFFFFFFFFFFFFFFFFFFFFFFFFFF AND PUSH2 0x8FC DUP3 SWAP1 DUP2 ISZERO MUL SWAP1 PUSH1 0x40 MLOAD PUSH1 0x0 PUSH1 0x40 MLOAD DUP1 DUP4 SUB DUP2 DUP6 DUP9 DUP9 CALL SWAP4 POP POP POP POP ISZERO DUP1 ISZERO PUSH2 0x427 JUMPI RETURNDATASIZE PUSH1 0x0 DUP1 RETURNDATACOPY RETURNDATASIZE PUSH1 0x0 REVERT JUMPDEST POP POP JUMP JUMPDEST PUSH1 0x0 DUP1 SLOAD SWAP1 PUSH2 0x100 EXP SWAP1 DIV PUSH20 0xFFFFFFFFFFFFFFFFFFFFFFFFFFFFFFFFFFFFFFFF AND PUSH20 0xFFFFFFFFFFFFFFFFFFFFFFFFFFFFFFFFFFFFFFFF AND CALLER PUSH20 0xFFFFFFFFFFFFFFFFFFFFFFFFFFFFFFFFFFFFFFFF AND EQ PUSH2 0x4B9 JUMPI PUSH1 0x40 MLOAD PUSH32 0x8C379A000000000000000000000000000000000000000000000000000000000 DUP2 MSTORE PUSH1 0x4 ADD PUSH2 0x4B0 SWAP1 PUSH2 0x1755 JUMP JUMPDEST PUSH1 0x40 MLOAD DUP1 SWAP2 SUB SWAP1 REVERT JUMPDEST PUSH1 0x0 PUSH1 0x3 PUSH1 0x0 PUSH2 0x100 EXP DUP2 SLOAD DUP2 PUSH1 0xFF MUL NOT AND SWAP1 DUP4 ISZERO ISZERO MUL OR SWAP1 SSTORE POP JUMP JUMPDEST PUSH1 0x0 PUSH1 0x3 PUSH1 0x0 SWAP1 SLOAD SWAP1 PUSH2 0x100 EXP SWAP1 DIV PUSH1 0xFF AND ISZERO PUSH2 0x528 JUMPI PUSH1 0x40 MLOAD PUSH32 0x8C379A000000000000000000000000000000000000000000000000000000000 DUP2 MSTORE PUSH1 0x4 ADD PUSH2 0x51F SWAP1 PUSH2 0x17C1 JUMP JUMPDEST PUSH1 0x40 MLOAD DUP1 SWAP2 SUB SWAP1 REVERT JUMPDEST PUSH7 0x38D7EA4C68000 CALLVALUE LT ISZERO PUSH2 0x572 JUMPI PUSH1 0x40 MLOAD PUSH32 0x8C379A000000000000000000000000000000000000000000000000000000000 DUP2 MSTORE PUSH1 0x4 ADD PUSH2 0x569 SWAP1 PUSH2 0x182D JUMP JUMPDEST PUSH1 0x40 MLOAD DUP1 SWAP2 SUB SWAP1 REVERT JUMPDEST PUSH1 0x0 CALLER DUP4 PUSH1 0x2 PUSH1 0x0 DUP2 SLOAD DUP1 SWAP3 SWAP2 SWAP1 PUSH2 0x589 SWAP1 PUSH2 0x187C JUMP JUMPDEST SWAP2 SWAP1 POP SSTORE TIMESTAMP PUSH1 0x40 MLOAD PUSH1 0x20 ADD PUSH2 0x5A1 SWAP5 SWAP4 SWAP3 SWAP2 SWAP1 PUSH2 0x194E JUMP JUMPDEST PUSH1 0x40 MLOAD PUSH1 0x20 DUP2 DUP4 SUB SUB DUP2 MSTORE SWAP1 PUSH1 0x40 MSTORE DUP1 MLOAD SWAP1 PUSH1 0x20 ADD KECCAK256 SWAP1 POP PUSH1 0x40 MLOAD DUP1 PUSH2 0x100 ADD PUSH1 0x40 MSTORE DUP1 CALLER PUSH20 0xFFFFFFFFFFFFFFFFFFFFFFFFFFFFFFFFFFFFFFFF AND DUP2 MSTORE PUSH1 0x20 ADD DUP5 DUP2 MSTORE PUSH1 0x20 ADD PUSH1 0x0 DUP1 SHL DUP2 MSTORE PUSH1 0x20 ADD PUSH1 0x0 DUP1 SHL DUP2 MSTORE PUSH1 0x20 ADD PUSH1 0x0 DUP1 SHL DUP2 MSTORE PUSH1 0x20 ADD PUSH1 0x0 PUSH1 0x3 DUP2 GT ISZERO PUSH2 0x616 JUMPI PUSH2 0x615 PUSH2 0x1603 JUMP JUMPDEST JUMPDEST DUP2 MSTORE PUSH1 0x20 ADD CALLVALUE DUP2 MSTORE PUSH1 0x20 ADD TIMESTAMP DUP2 MSTORE POP PUSH1 0x4 PUSH1 0x0 DUP4 DUP2 MSTORE PUSH1 0x20 ADD SWAP1 DUP2 MSTORE PUSH1 0x20 ADD PUSH1 0x0 KECCAK256 PUSH1 0x0 DUP3 ADD MLOAD DUP2 PUSH1 0x0 ADD PUSH1 0x0 PUSH2 0x100 EXP DUP2 SLOAD DUP2 PUSH20 0xFFFFFFFFFFFFFFFFFFFFFFFFFFFFFFFFFFFFFFFF MUL NOT AND SWAP1 DUP4 PUSH20 0xFFFFFFFFFFFFFFFFFFFFFFFFFFFFFFFFFFFFFFFF AND MUL OR SWAP1 SSTORE POP PUSH1 0x20 DUP3 ADD MLOAD DUP2 PUSH1 0x1 ADD SSTORE PUSH1 0x40 DUP3 ADD MLOAD DUP2 PUSH1 0x2 ADD SSTORE PUSH1 0x60 DUP3 ADD MLOAD DUP2 PUSH1 0x3 ADD SSTORE PUSH1 0x80 DUP3 ADD MLOAD DUP2 PUSH1 0x4 ADD SSTORE PUSH1 0xA0 DUP3 ADD MLOAD DUP2 PUSH1 0x5 ADD PUSH1 0x0 PUSH2 0x100 EXP DUP2 SLOAD DUP2 PUSH1 0xFF MUL NOT AND SWAP1 DUP4 PUSH1 0x3 DUP2 GT ISZERO PUSH2 0x6D2 JUMPI PUSH2 0x6D1 PUSH2 0x1603 JUMP JUMPDEST JUMPDEST MUL OR SWAP1 SSTORE POP PUSH1 0xC0 DUP3 ADD MLOAD DUP2 PUSH1 0x6 ADD SSTORE PUSH1 0xE0 DUP3 ADD MLOAD DUP2 PUSH1 0x7 ADD SSTORE SWAP1 POP POP CALLER PUSH20 0xFFFFFFFFFFFFFFFFFFFFFFFFFFFFFFFFFFFFFFFF AND DUP2 PUSH32 0x6DF84F6D490512B2C1F5069AB6AB8FF2562F796F4AB608B220F1988EF76BCAAF DUP6 CALLVALUE TIMESTAMP PUSH1 0x40 MLOAD PUSH2 0x739 SWAP4 SWAP3 SWAP2 SWAP1 PUSH2 0x199C JUMP JUMPDEST PUSH1 0x40 MLOAD DUP1 SWAP2 SUB SWAP1 LOG3 DUP1 SWAP2 POP POP SWAP2 SWAP1 POP JUMP JUMPDEST PUSH1 0x2 SLOAD DUP2 JUMP JUMPDEST PUSH1 0x3 PUSH1 0x0 SWAP1 SLOAD SWAP1 PUSH2 0x100 EXP SWAP1 DIV PUSH1 0xFF AND DUP2 JUMP JUMPDEST PUSH1 0x0 PUSH1 0x4 PUSH1 0x0 DUP8 DUP2 MSTORE PUSH1 0x20 ADD SWAP1 DUP2 MSTORE PUSH1 0x20 ADD PUSH1 0x0 KECCAK256 SWAP1 POP PUSH1 0x0 PUSH1 0x3 DUP2 GT ISZERO PUSH2 0x78E JUMPI PUSH2 0x78D PUSH2 0x1603 JUMP JUMPDEST JUMPDEST DUP2 PUSH1 0x5 ADD PUSH1 0x0 SWAP1 SLOAD SWAP1 PUSH2 0x100 EXP SWAP1 DIV PUSH1 0xFF AND PUSH1 0x3 DUP2 GT ISZERO PUSH2 0x7B2 JUMPI PUSH2 0x7B1 PUSH2 0x1603 JUMP JUMPDEST JUMPDEST EQ PUSH2 0x7F2 JUMPI PUSH1 0x40 MLOAD PUSH32 0x8C379A000000000000000000000000000000000000000000000000000000000 DUP2 MSTORE PUSH1 0x4 ADD PUSH2 0x7E9 SWAP1 PUSH2 0x1A1F JUMP JUMPDEST PUSH1 0x40 MLOAD DUP1 SWAP2 SUB SWAP1 REVERT JUMPDEST PUSH1 0x0 DUP7 DUP7 DUP7 DUP7 PUSH1 0x40 MLOAD PUSH1 0x20 ADD PUSH2 0x80B SWAP5 SWAP4 SWAP3 SWAP2 SWAP1 PUSH2 0x1A3F JUMP JUMPDEST PUSH1 0x40 MLOAD PUSH1 0x20 DUP2 DUP4 SUB SUB DUP2 MSTORE SWAP1 PUSH1 0x40 MSTORE DUP1 MLOAD SWAP1 PUSH1 0x20 ADD KECCAK256 SWAP1 POP PUSH1 0x0 DUP2 PUSH1 0x40 MLOAD PUSH1 0x20 ADD PUSH2 0x836 SWAP2 SWAP1 PUSH2 0x1AE4 JUMP JUMPDEST PUSH1 0x40 MLOAD PUSH1 0x20 DUP2 DUP4 SUB SUB DUP2 MSTORE SWAP1 PUSH1 0x40 MSTORE DUP1 MLOAD SWAP1 PUSH1 0x20 ADD KECCAK256 SWAP1 POP PUSH1 0x0 PUSH2 0x85A DUP3 DUP7 PUSH2 0xF2D JUMP JUMPDEST SWAP1 POP PUSH1 0x1 PUSH1 0x0 SWAP1 SLOAD SWAP1 PUSH2 0x100 EXP SWAP1 DIV PUSH20 0xFFFFFFFFFFFFFFFFFFFFFFFFFFFFFFFFFFFFFFFF AND PUSH20 0xFFFFFFFFFFFFFFFFFFFFFFFFFFFFFFFFFFFFFFFF AND DUP2 PUSH20 0xFFFFFFFFFFFFFFFFFFFFFFFFFFFFFFFFFFFFFFFF AND EQ PUSH2 0x8EC JUMPI PUSH1 0x40 MLOAD PUSH32 0x8C379A000000000000000000000000000000000000000000000000000000000 DUP2 MSTORE PUSH1 0x4 ADD PUSH2 0x8E3 SWAP1 PUSH2 0x1B56 JUMP JUMPDEST PUSH1 0x40 MLOAD DUP1 SWAP2 SUB SWAP1 REVERT JUMPDEST DUP8 DUP5 PUSH1 0x2 ADD DUP2 SWAP1 SSTORE POP DUP7 DUP5 PUSH1 0x3 ADD DUP2 SWAP1 SSTORE POP DUP6 DUP5 PUSH1 0x4 ADD DUP2 SWAP1 SSTORE POP PUSH1 0x1 DUP5 PUSH1 0x5 ADD PUSH1 0x0 PUSH2 0x100 EXP DUP2 SLOAD DUP2 PUSH1 0xFF MUL NOT AND SWAP1 DUP4 PUSH1 0x3 DUP2 GT ISZERO PUSH2 0x92F JUMPI PUSH2 0x92E PUSH2 0x1603 JUMP JUMPDEST JUMPDEST MUL OR SWAP1 SSTORE POP DUP9 PUSH32 0xA050751200BD187AFC96591C43A0E34C0ADCA05E5B8F6112C02B37D2F0E08627 DUP10 DUP10 DUP10 PUSH1 0x40 MLOAD PUSH2 0x968 SWAP4 SWAP3 SWAP2 SWAP1 PUSH2 0x1B76 JUMP JUMPDEST PUSH1 0x40 MLOAD DUP1 SWAP2 SUB SWAP1 LOG2 POP POP POP POP POP POP POP POP POP JUMP JUMPDEST PUSH1 0x1 PUSH1 0x0 SWAP1 SLOAD SWAP1 PUSH2 0x100 EXP SWAP1 DIV PUSH20 0xFFFFFFFFFFFFFFFFFFFFFFFFFFFFFFFFFFFFFFFF AND DUP2 JUMP JUMPDEST PUSH1 0x0 DUP1 SLOAD SWAP1 PUSH2 0x100 EXP SWAP1 DIV PUSH20 0xFFFFFFFFFFFFFFFFFFFFFFFFFFFFFFFFFFFFFFFF AND PUSH20 0xFFFFFFFFFFFFFFFFFFFFFFFFFFFFFFFFFFFFFFFF AND CALLER PUSH20 0xFFFFFFFFFFFFFFFFFFFFFFFFFFFFFFFFFFFFFFFF AND EQ PUSH2 0xA2F JUMPI PUSH1 0x40 MLOAD PUSH32 0x8C379A000000000000000000000000000000000000000000000000000000000 DUP2 MSTORE PUSH1 0x4 ADD PUSH2 0xA26 SWAP1 PUSH2 0x1755 JUMP JUMPDEST PUSH1 0x40 MLOAD DUP1 SWAP2 SUB SWAP1 REVERT JUMPDEST PUSH1 0x1 PUSH1 0x3 PUSH1 0x0 PUSH2 0x100 EXP DUP2 SLOAD DUP2 PUSH1 0xFF MUL NOT AND SWAP1 DUP4 ISZERO ISZERO MUL OR SWAP1 SSTORE POP JUMP JUMPDEST PUSH1 0x0 DUP1 SLOAD SWAP1 PUSH2 0x100 EXP SWAP1 DIV PUSH20 0xFFFFFFFFFFFFFFFFFFFFFFFFFFFFFFFFFFFFFFFF AND PUSH20 0xFFFFFFFFFFFFFFFFFFFFFFFFFFFFFFFFFFFFFFFF AND CALLER PUSH20 0xFFFFFFFFFFFFFFFFFFFFFFFFFFFFFFFFFFFFFFFF AND EQ PUSH2 0xADA JUMPI PUSH1 0x40 MLOAD PUSH32 0x8C379A000000000000000000000000000000000000000000000000000000000 DUP2 MSTORE PUSH1 0x4 ADD PUSH2 0xAD1 SWAP1 PUSH2 0x1755 JUMP JUMPDEST PUSH1 0x40 MLOAD DUP1 SWAP2 SUB SWAP1 REVERT JUMPDEST DUP1 PUSH1 0x1 PUSH1 0x0 PUSH2 0x100 EXP DUP2 SLOAD DUP2 PUSH20 0xFFFFFFFFFFFFFFFFFFFFFFFFFFFFFFFFFFFFFFFF MUL NOT AND SWAP1 DUP4 PUSH20 0xFFFFFFFFFFFFFFFFFFFFFFFFFFFFFFFFFFFFFFFF AND MUL OR SWAP1 SSTORE POP POP JUMP JUMPDEST PUSH1 0x1 PUSH1 0x0 SWAP1 SLOAD SWAP1 PUSH2 0x100 EXP SWAP1 DIV PUSH20 0xFFFFFFFFFFFFFFFFFFFFFFFFFFFFFFFFFFFFFFFF AND PUSH20 0xFFFFFFFFFFFFFFFFFFFFFFFFFFFFFFFFFFFFFFFF AND CALLER PUSH20 0xFFFFFFFFFFFFFFFFFFFFFFFFFFFFFFFFFFFFFFFF AND EQ PUSH2 0xBAE JUMPI PUSH1 0x40 MLOAD PUSH32 0x8C379A000000000000000000000000000000000000000000000000000000000 DUP2 MSTORE PUSH1 0x4 ADD PUSH2 0xBA5 SWAP1 PUSH2 0x1BF9 JUMP JUMPDEST PUSH1 0x40 MLOAD DUP1 SWAP2 SUB SWAP1 REVERT JUMPDEST PUSH1 0x0 PUSH1 0x4 PUSH1 0x0 DUP4 DUP2 MSTORE PUSH1 0x20 ADD SWAP1 DUP2 MSTORE PUSH1 0x20 ADD PUSH1 0x0 KECCAK256 SWAP1 POP PUSH1 0x0 PUSH1 0x3 DUP2 GT ISZERO PUSH2 0xBD9 JUMPI PUSH2 0xBD8 PUSH2 0x1603 JUMP JUMPDEST JUMPDEST DUP2 PUSH1 0x5 ADD PUSH1 0x0 SWAP1 SLOAD SWAP1 PUSH2 0x100 EXP SWAP1 DIV PUSH1 0xFF AND PUSH1 0x3 DUP2 GT ISZERO PUSH2 0xBFD JUMPI PUSH2 0xBFC PUSH2 0x1603 JUMP JUMPDEST JUMPDEST EQ PUSH2 0xC3D JUMPI PUSH1 0x40 MLOAD PUSH32 0x8C379A000000000000000000000000000000000000000000000000000000000 DUP2 MSTORE PUSH1 0x4 ADD PUSH2 0xC34 SWAP1 PUSH2 0x1A1F JUMP JUMPDEST PUSH1 0x40 MLOAD DUP1 SWAP2 SUB SWAP1 REVERT JUMPDEST PUSH1 0x2 DUP2 PUSH1 0x5 ADD PUSH1 0x0 PUSH2 0x100 EXP DUP2 SLOAD DUP2 PUSH1 0xFF MUL NOT AND SWAP1 DUP4 PUSH1 0x3 DUP2 GT ISZERO PUSH2 0xC65 JUMPI PUSH2 0xC64 PUSH2 0x1603 JUMP JUMPDEST JUMPDEST MUL OR SWAP1 SSTORE POP DUP1 PUSH1 0x0 ADD PUSH1 0x0 SWAP1 SLOAD SWAP1 PUSH2 0x100 EXP SWAP1 DIV PUSH20 0xFFFFFFFFFFFFFFFFFFFFFFFFFFFFFFFFFFFFFFFF AND PUSH20 0xFFFFFFFFFFFFFFFFFFFFFFFFFFFFFFFFFFFFFFFF AND PUSH2 0x8FC DUP3 PUSH1 0x6 ADD SLOAD SWAP1 DUP2 ISZERO MUL SWAP1 PUSH1 0x40 MLOAD PUSH1 0x0 PUSH1 0x40 MLOAD DUP1 DUP4 SUB DUP2 DUP6 DUP9 DUP9 CALL SWAP4 POP POP POP POP ISZERO DUP1 ISZERO PUSH2 0xCD8 JUMPI RETURNDATASIZE PUSH1 0x0 DUP1 RETURNDATACOPY RETURNDATASIZE PUSH1 0x0 REVERT JUMPDEST POP DUP2 PUSH32 0x4769361A442504ECAF038F35E119BCCCDD5E42096B24C09E3C17FD17C6684C02 PUSH1 0x40 MLOAD PUSH1 0x40 MLOAD DUP1 SWAP2 SUB SWAP1 LOG2 POP POP JUMP JUMPDEST PUSH1 0x4 PUSH1 0x20 MSTORE DUP1 PUSH1 0x0 MSTORE PUSH1 0x40 PUSH1 0x0 KECCAK256 PUSH1 0x0 SWAP2 POP SWAP1 POP DUP1 PUSH1 0x0 ADD PUSH1 0x0 SWAP1 SLOAD SWAP1 PUSH2 0x100 EXP SWAP1 DIV PUSH20 0xFFFFFFFFFFFFFFFFFFFFFFFFFFFFFFFFFFFFFFFF AND SWAP1 DUP1 PUSH1 0x1 ADD SLOAD SWAP1 DUP1 PUSH1 0x2 ADD SLOAD SWAP1 DUP1 PUSH1 0x3 ADD SLOAD SWAP1 DUP1 PUSH1 0x4 ADD SLOAD SWAP1 DUP1 PUSH1 0x5 ADD PUSH1 0x0 SWAP1 SLOAD SWAP1 PUSH2 0x100 EXP SWAP1 DIV PUSH1 0xFF AND SWAP1 DUP1 PUSH1 0x6 ADD SLOAD SWAP1 DUP1 PUSH1 0x7 ADD SLOAD SWAP1 POP DUP9 JUMP JUMPDEST PUSH1 0x0 PUSH1 0x4 PUSH1 0x0 DUP4 DUP2 MSTORE PUSH1 0x20 ADD SWAP1 DUP2 MSTORE PUSH1 0x20 ADD PUSH1 0x0 KECCAK256 SWAP1 POP CALLER PUSH20 0xFFFFFFFFFFFFFFFFFFFFFFFFFFFFFFFFFFFFFFFF AND DUP2 PUSH1 0x0 ADD PUSH1 0x0 SWAP1 SLOAD SWAP1 PUSH2 0x100 EXP SWAP1 DIV PUSH20 0xFFFFFFFFFFFFFFFFFFFFFFFFFFFFFFFFFFFFFFFF AND PUSH20 0xFFFFFFFFFFFFFFFFFFFFFFFFFFFFFFFFFFFFFFFF AND EQ PUSH2 0xE28 JUMPI PUSH1 0x40 MLOAD PUSH32 0x8C379A000000000000000000000000000000000000000000000000000000000 DUP2 MSTORE PUSH1 0x4 ADD PUSH2 0xE1F SWAP1 PUSH2 0x1C65 JUMP JUMPDEST PUSH1 0x40 MLOAD DUP1 SWAP2 SUB SWAP1 REVERT JUMPDEST PUSH1 0x1 PUSH1 0x3 DUP2 GT ISZERO PUSH2 0xE3C JUMPI PUSH2 0xE3B PUSH2 0x1603 JUMP JUMPDEST JUMPDEST DUP2 PUSH1 0x5 ADD PUSH1 0x0 SWAP1 SLOAD SWAP1 PUSH2 0x100 EXP SWAP1 DIV PUSH1 0xFF AND PUSH1 0x3 DUP2 GT ISZERO PUSH2 0xE60 JUMPI PUSH2 0xE5F PUSH2 0x1603 JUMP JUMPDEST JUMPDEST EQ PUSH2 0xEA0 JUMPI PUSH1 0x40 MLOAD PUSH32 0x8C379A000000000000000000000000000000000000000000000000000000000 DUP2 MSTORE PUSH1 0x4 ADD PUSH2 0xE97 SWAP1 PUSH2 0x1CD1 JUMP JUMPDEST PUSH1 0x40 MLOAD DUP1 SWAP2 SUB SWAP1 REVERT JUMPDEST PUSH1 0x3 DUP2 PUSH1 0x5 ADD PUSH1 0x0 PUSH2 0x100 EXP DUP2 SLOAD DUP2 PUSH1 0xFF MUL NOT AND SWAP1 DUP4 PUSH1 0x3 DUP2 GT ISZERO PUSH2 0xEC8 JUMPI PUSH2 0xEC7 PUSH2 0x1603 JUMP JUMPDEST JUMPDEST MUL OR SWAP1 SSTORE POP DUP2 PUSH32 0x135DA073807BB75B5AC08972E9DD63B72D73A01C65A5ED22FC25A53ED750D2C PUSH1 0x40 MLOAD PUSH1 0x40 MLOAD DUP1 SWAP2 SUB SWAP1 LOG2 POP POP JUMP JUMPDEST PUSH7 0x38D7EA4C68000 DUP2 JUMP JUMPDEST PUSH1 0x0 DUP1 SLOAD SWAP1 PUSH2 0x100 EXP SWAP1 DIV PUSH20 0xFFFFFFFFFFFFFFFFFFFFFFFFFFFFFFFFFFFFFFFF AND DUP2 JUMP JUMPDEST PUSH1 0x0 DUP1 PUSH1 0x0 DUP1 PUSH2 0xF3D DUP7 DUP7 PUSH2 0xF59 JUMP JUMPDEST SWAP3 POP SWAP3 POP SWAP3 POP PUSH2 0xF4D DUP3 DUP3 PUSH2 0xFB5 JUMP JUMPDEST DUP3 SWAP4 POP POP POP POP SWAP3 SWAP2 POP POP JUMP JUMPDEST PUSH1 0x0 DUP1 PUSH1 0x0 PUSH1 0x41 DUP5 MLOAD SUB PUSH2 0xF9E JUMPI PUSH1 0x0 DUP1 PUSH1 0x0 PUSH1 0x20 DUP8 ADD MLOAD SWAP3 POP PUSH1 0x40 DUP8 ADD MLOAD SWAP2 POP PUSH1 0x60 DUP8 ADD MLOAD PUSH1 0x0 BYTE SWAP1 POP PUSH2 0xF90 DUP9 DUP3 DUP6 DUP6 PUSH2 0x1119 JUMP JUMPDEST SWAP6 POP SWAP6 POP SWAP6 POP POP POP POP PUSH2 0xFAE JUMP JUMPDEST PUSH1 0x0 PUSH1 0x2 DUP6 MLOAD PUSH1 0x0 SHL SWAP3 POP SWAP3 POP SWAP3 POP JUMPDEST SWAP3 POP SWAP3 POP SWAP3 JUMP JUMPDEST PUSH1 0x0 PUSH1 0x3 DUP2 GT ISZERO PUSH2 0xFC9 JUMPI PUSH2 0xFC8 PUSH2 0x1603 JUMP JUMPDEST JUMPDEST DUP3 PUSH1 0x3 DUP2 GT ISZERO PUSH2 0xFDC JUMPI PUSH2 0xFDB PUSH2 0x1603 JUMP JUMPDEST JUMPDEST SUB ISZERO PUSH2 0x1115 JUMPI PUSH1 0x1 PUSH1 0x3 DUP2 GT ISZERO PUSH2 0xFF6 JUMPI PUSH2 0xFF5 PUSH2 0x1603 JUMP JUMPDEST JUMPDEST DUP3 PUSH1 0x3 DUP2 GT ISZERO PUSH2 0x1009 JUMPI PUSH2 0x1008 PUSH2 0x1603 JUMP JUMPDEST JUMPDEST SUB PUSH2 0x1040 JUMPI PUSH1 0x40 MLOAD PUSH32 0xF645EEDF00000000000000000000000000000000000000000000000000000000 DUP2 MSTORE PUSH1 0x4 ADD PUSH1 0x40 MLOAD DUP1 SWAP2 SUB SWAP1 REVERT JUMPDEST PUSH1 0x2 PUSH1 0x3 DUP2 GT ISZERO PUSH2 0x1054 JUMPI PUSH2 0x1053 PUSH2 0x1603 JUMP JUMPDEST JUMPDEST DUP3 PUSH1 0x3 DUP2 GT ISZERO PUSH2 0x1067 JUMPI PUSH2 0x1066 PUSH2 0x1603 JUMP JUMPDEST JUMPDEST SUB PUSH2 0x10AC JUMPI DUP1 PUSH1 0x0 SHR PUSH1 0x40 MLOAD PUSH32 0xFCE698F700000000000000000000000000000000000000000000000000000000 DUP2 MSTORE PUSH1 0x4 ADD PUSH2 0x10A3 SWAP2 SWAP1 PUSH2 0x1320 JUMP JUMPDEST PUSH1 0x40 MLOAD DUP1 SWAP2 SUB SWAP1 REVERT JUMPDEST PUSH1 0x3 DUP1 DUP2 GT ISZERO PUSH2 0x10BF JUMPI PUSH2 0x10BE PUSH2 0x1603 JUMP JUMPDEST JUMPDEST DUP3 PUSH1 0x3 DUP2 GT ISZERO PUSH2 0x10D2 JUMPI PUSH2 0x10D1 PUSH2 0x1603 JUMP JUMPDEST JUMPDEST SUB PUSH2 0x1114 JUMPI DUP1 PUSH1 0x40 MLOAD PUSH32 0xD78BCE0C00000000000000000000000000000000000000000000000000000000 DUP2 MSTORE PUSH1 0x4 ADD PUSH2 0x110B SWAP2 SWAP1 PUSH2 0x12F6 JUMP JUMPDEST PUSH1 0x40 MLOAD DUP1 SWAP2 SUB SWAP1 REVERT JUMPDEST JUMPDEST POP POP JUMP JUMPDEST PUSH1 0x0 DUP1 PUSH1 0x0 PUSH32 0x7FFFFFFFFFFFFFFFFFFFFFFFFFFFFFFF5D576E7357A4501DDFE92F46681B20A0 DUP5 PUSH1 0x0 SHR GT ISZERO PUSH2 0x1159 JUMPI PUSH1 0x0 PUSH1 0x3 DUP6 SWAP3 POP SWAP3 POP SWAP3 POP PUSH2 0x1203 JUMP JUMPDEST PUSH1 0x0 PUSH1 0x1 DUP9 DUP9 DUP9 DUP9 PUSH1 0x40 MLOAD PUSH1 0x0 DUP2 MSTORE PUSH1 0x20 ADD PUSH1 0x40 MSTORE PUSH1 0x40 MLOAD PUSH2 0x117E SWAP5 SWAP4 SWAP3 SWAP2 SWAP1 PUSH2 0x1D0D JUMP JUMPDEST PUSH1 0x20 PUSH1 0x40 MLOAD PUSH1 0x20 DUP2 SUB SWAP1 DUP1 DUP5 SUB SWAP1 DUP6 GAS STATICCALL ISZERO DUP1 ISZERO PUSH2 0x11A0 JUMPI RETURNDATASIZE PUSH1 0x0 DUP1 RETURNDATACOPY RETURNDATASIZE PUSH1 0x0 REVERT JUMPDEST POP POP POP PUSH1 0x20 PUSH1 0x40 MLOAD SUB MLOAD SWAP1 POP PUSH1 0x0 PUSH20 0xFFFFFFFFFFFFFFFFFFFFFFFFFFFFFFFFFFFFFFFF AND DUP2 PUSH20 0xFFFFFFFFFFFFFFFFFFFFFFFFFFFFFFFFFFFFFFFF AND SUB PUSH2 0x11F4 JUMPI PUSH1 0x0 PUSH1 0x1 PUSH1 0x0 DUP1 SHL SWAP4 POP SWAP4 POP SWAP4 POP POP PUSH2 0x1203 JUMP JUMPDEST DUP1 PUSH1 0x0 DUP1 PUSH1 0x0 SHL SWAP4 POP SWAP4 POP SWAP4 POP POP JUMPDEST SWAP5 POP SWAP5 POP SWAP5 SWAP2 POP POP JUMP JUMPDEST PUSH1 0x0 PUSH1 0x40 MLOAD SWAP1 POP SWAP1 JUMP JUMPDEST PUSH1 0x0 DUP1 REVERT JUMPDEST PUSH1 0x0 DUP1 REVERT JUMPDEST PUSH1 0x0 DUP2 SWAP1 POP SWAP2 SWAP1 POP JUMP JUMPDEST PUSH2 0x1234 DUP2 PUSH2 0x1221 JUMP JUMPDEST DUP2 EQ PUSH2 0x123F JUMPI PUSH1 0x0 DUP1 REVERT JUMPDEST POP JUMP JUMPDEST PUSH1 0x0 DUP2 CALLDATALOAD SWAP1 POP PUSH2 0x1251 DUP2 PUSH2 0x122B JUMP JUMPDEST SWAP3 SWAP2 POP POP JUMP JUMPDEST PUSH1 0x0 PUSH1 0x20 DUP3 DUP5 SUB SLT ISZERO PUSH2 0x126D JUMPI PUSH2 0x126C PUSH2 0x1217 JUMP JUMPDEST JUMPDEST PUSH1 0x0 PUSH2 0x127B DUP5 DUP3 DUP6 ADD PUSH2 0x1242 JUMP JUMPDEST SWAP2 POP POP SWAP3 SWAP2 POP POP JUMP JUMPDEST PUSH1 0x0 DUP2 SWAP1 POP SWAP2 SWAP1 POP JUMP JUMPDEST PUSH2 0x1297 DUP2 PUSH2 0x1284 JUMP JUMPDEST DUP2 EQ PUSH2 0x12A2 JUMPI PUSH1 0x0 DUP1 REVERT JUMPDEST POP JUMP JUMPDEST PUSH1 0x0 DUP2 CALLDATALOAD SWAP1 POP PUSH2 0x12B4 DUP2 PUSH2 0x128E JUMP JUMPDEST SWAP3 SWAP2 POP POP JUMP JUMPDEST PUSH1 0x0 PUSH1 0x20 DUP3 DUP5 SUB SLT ISZERO PUSH2 0x12D0 JUMPI PUSH2 0x12CF PUSH2 0x1217 JUMP JUMPDEST JUMPDEST PUSH1 0x0 PUSH2 0x12DE DUP5 DUP3 DUP6 ADD PUSH2 0x12A5 JUMP JUMPDEST SWAP2 POP POP SWAP3 SWAP2 POP POP JUMP JUMPDEST PUSH2 0x12F0 DUP2 PUSH2 0x1284 JUMP JUMPDEST DUP3 MSTORE POP POP JUMP JUMPDEST PUSH1 0x0 PUSH1 0x20 DUP3 ADD SWAP1 POP PUSH2 0x130B PUSH1 0x0 DUP4 ADD DUP5 PUSH2 0x12E7 JUMP JUMPDEST SWAP3 SWAP2 POP POP JUMP JUMPDEST PUSH2 0x131A DUP2 PUSH2 0x1221 JUMP JUMPDEST DUP3 MSTORE POP POP JUMP JUMPDEST PUSH1 0x0 PUSH1 0x20 DUP3 ADD SWAP1 POP PUSH2 0x1335 PUSH1 0x0 DUP4 ADD DUP5 PUSH2 0x1311 JUMP JUMPDEST SWAP3 SWAP2 POP POP JUMP JUMPDEST PUSH1 0x0 DUP2 ISZERO ISZERO SWAP1 POP SWAP2 SWAP1 POP JUMP JUMPDEST PUSH2 0x1350 DUP2 PUSH2 0x133B JUMP JUMPDEST DUP3 MSTORE POP POP JUMP JUMPDEST PUSH1 0x0 PUSH1 0x20 DUP3 ADD SWAP1 POP PUSH2 0x136B PUSH1 0x0 DUP4 ADD DUP5 PUSH2 0x1347 JUMP JUMPDEST SWAP3 SWAP2 POP POP JUMP JUMPDEST PUSH1 0x0 DUP1 REVERT JUMPDEST PUSH1 0x0 DUP1 REVERT JUMPDEST PUSH1 0x0 PUSH1 0x1F NOT PUSH1 0x1F DUP4 ADD AND SWAP1 POP SWAP2 SWAP1 POP JUMP JUMPDEST PUSH32 0x4E487B7100000000000000000000000000000000000000000000000000000000 PUSH1 0x0 MSTORE PUSH1 0x41 PUSH1 0x4 MSTORE PUSH1 0x24 PUSH1 0x0 REVERT JUMPDEST PUSH2 0x13C4 DUP3 PUSH2 0x137B JUMP JUMPDEST DUP2 ADD DUP2 DUP2 LT PUSH8 0xFFFFFFFFFFFFFFFF DUP3 GT OR ISZERO PUSH2 0x13E3 JUMPI PUSH2 0x13E2 PUSH2 0x138C JUMP JUMPDEST JUMPDEST DUP1 PUSH1 0x40 MSTORE POP POP POP JUMP JUMPDEST PUSH1 0x0 PUSH2 0x13F6 PUSH2 0x120D JUMP JUMPDEST SWAP1 POP PUSH2 0x1402 DUP3 DUP3 PUSH2 0x13BB JUMP JUMPDEST SWAP2 SWAP1 POP JUMP JUMPDEST PUSH1 0x0 PUSH8 0xFFFFFFFFFFFFFFFF DUP3 GT ISZERO PUSH2 0x1422 JUMPI PUSH2 0x1421 PUSH2 0x138C JUMP JUMPDEST JUMPDEST PUSH2 0x142B DUP3 PUSH2 0x137B JUMP JUMPDEST SWAP1 POP PUSH1 0x20 DUP2 ADD SWAP1 POP SWAP2 SWAP1 POP JUMP JUMPDEST DUP3 DUP2 DUP4 CALLDATACOPY PUSH1 0x0 DUP4 DUP4 ADD MSTORE POP POP POP JUMP JUMPDEST PUSH1 0x0 PUSH2 0x145A PUSH2 0x1455 DUP5 PUSH2 0x1407 JUMP JUMPDEST PUSH2 0x13EC JUMP JUMPDEST SWAP1 POP DUP3 DUP2 MSTORE PUSH1 0x20 DUP2 ADD DUP5 DUP5 DUP5 ADD GT ISZERO PUSH2 0x1476 JUMPI PUSH2 0x1475 PUSH2 0x1376 JUMP JUMPDEST JUMPDEST PUSH2 0x1481 DUP5 DUP3 DUP6 PUSH2 0x1438 JUMP JUMPDEST POP SWAP4 SWAP3 POP POP POP JUMP JUMPDEST PUSH1 0x0 DUP3 PUSH1 0x1F DUP4 ADD SLT PUSH2 0x149E JUMPI PUSH2 0x149D PUSH2 0x1371 JUMP JUMPDEST JUMPDEST DUP2 CALLDATALOAD PUSH2 0x14AE DUP5 DUP3 PUSH1 0x20 DUP7 ADD PUSH2 0x1447 JUMP JUMPDEST SWAP2 POP POP SWAP3 SWAP2 POP POP JUMP JUMPDEST PUSH1 0x0 DUP1 PUSH1 0x0 DUP1 PUSH1 0x0 PUSH1 0xA0 DUP7 DUP9 SUB SLT ISZERO PUSH2 0x14D3 JUMPI PUSH2 0x14D2 PUSH2 0x1217 JUMP JUMPDEST JUMPDEST PUSH1 0x0 PUSH2 0x14E1 DUP9 DUP3 DUP10 ADD PUSH2 0x12A5 JUMP JUMPDEST SWAP6 POP POP PUSH1 0x20 PUSH2 0x14F2 DUP9 DUP3 DUP10 ADD PUSH2 0x12A5 JUMP JUMPDEST SWAP5 POP POP PUSH1 0x40 PUSH2 0x1503 DUP9 DUP3 DUP10 ADD PUSH2 0x12A5 JUMP JUMPDEST SWAP4 POP POP PUSH1 0x60 PUSH2 0x1514 DUP9 DUP3 DUP10 ADD PUSH2 0x12A5 JUMP JUMPDEST SWAP3 POP POP PUSH1 0x80 DUP7 ADD CALLDATALOAD PUSH8 0xFFFFFFFFFFFFFFFF DUP2 GT ISZERO PUSH2 0x1535 JUMPI PUSH2 0x1534 PUSH2 0x121C JUMP JUMPDEST JUMPDEST PUSH2 0x1541 DUP9 DUP3 DUP10 ADD PUSH2 0x1489 JUMP JUMPDEST SWAP2 POP POP SWAP3 SWAP6 POP SWAP3 SWAP6 SWAP1 SWAP4 POP JUMP JUMPDEST PUSH1 0x0 PUSH20 0xFFFFFFFFFFFFFFFFFFFFFFFFFFFFFFFFFFFFFFFF DUP3 AND SWAP1 POP SWAP2 SWAP1 POP JUMP JUMPDEST PUSH1 0x0 PUSH2 0x1579 DUP3 PUSH2 0x154E JUMP JUMPDEST SWAP1 POP SWAP2 SWAP1 POP JUMP JUMPDEST PUSH2 0x1589 DUP2 PUSH2 0x156E JUMP JUMPDEST DUP3 MSTORE POP POP JUMP JUMPDEST PUSH1 0x0 PUSH1 0x20 DUP3 ADD SWAP1 POP PUSH2 0x15A4 PUSH1 0x0 DUP4 ADD DUP5 PUSH2 0x1580 JUMP JUMPDEST SWAP3 SWAP2 POP POP JUMP JUMPDEST PUSH2 0x15B3 DUP2 PUSH2 0x156E JUMP JUMPDEST DUP2 EQ PUSH2 0x15BE JUMPI PUSH1 0x0 DUP1 REVERT JUMPDEST POP JUMP JUMPDEST PUSH1 0x0 DUP2 CALLDATALOAD SWAP1 POP PUSH2 0x15D0 DUP2 PUSH2 0x15AA JUMP JUMPDEST SWAP3 SWAP2 POP POP JUMP JUMPDEST PUSH1 0x0 PUSH1 0x20 DUP3 DUP5 SUB SLT ISZERO PUSH2 0x15EC JUMPI PUSH2 0x15EB PUSH2 0x1217 JUMP JUMPDEST JUMPDEST PUSH1 0x0 PUSH2 0x15FA DUP5 DUP3 DUP6 ADD PUSH2 0x15C1 JUMP JUMPDEST SWAP2 POP POP SWAP3 SWAP2 POP POP JUMP JUMPDEST PUSH32 0x4E487B7100000000000000000000000000000000000000000000000000000000 PUSH1 0x0 MSTORE PUSH1 0x21 PUSH1 0x4 MSTORE PUSH1 0x24 PUSH1 0x0 REVERT JUMPDEST PUSH1 0x4 DUP2 LT PUSH2 0x1643 JUMPI PUSH2 0x1642 PUSH2 0x1603 JUMP JUMPDEST JUMPDEST POP JUMP JUMPDEST PUSH1 0x0 DUP2 SWAP1 POP PUSH2 0x1654 DUP3 PUSH2 0x1632 JUMP JUMPDEST SWAP2 SWAP1 POP JUMP JUMPDEST PUSH1 0x0 PUSH2 0x1664 DUP3 PUSH2 0x1646 JUMP JUMPDEST SWAP1 POP SWAP2 SWAP1 POP JUMP JUMPDEST PUSH2 0x1674 DUP2 PUSH2 0x1659 JUMP JUMPDEST DUP3 MSTORE POP POP JUMP JUMPDEST PUSH1 0x0 PUSH2 0x100 DUP3 ADD SWAP1 POP PUSH2 0x1690 PUSH1 0x0 DUP4 ADD DUP12 PUSH2 0x1580 JUMP JUMPDEST PUSH2 0x169D PUSH1 0x20 DUP4 ADD DUP11 PUSH2 0x12E7 JUMP JUMPDEST PUSH2 0x16AA PUSH1 0x40 DUP4 ADD DUP10 PUSH2 0x12E7 JUMP JUMPDEST PUSH2 0x16B7 PUSH1 0x60 DUP4 ADD DUP9 PUSH2 0x12E7 JUMP JUMPDEST PUSH2 0x16C4 PUSH1 0x80 DUP4 ADD DUP8 PUSH2 0x12E7 JUMP JUMPDEST PUSH2 0x16D1 PUSH1 0xA0 DUP4 ADD DUP7 PUSH2 0x166B JUMP JUMPDEST PUSH2 0x16DE PUSH1 0xC0 DUP4 ADD DUP6 PUSH2 0x1311 JUMP JUMPDEST PUSH2 0x16EB PUSH1 0xE0 DUP4 ADD DUP5 PUSH2 0x1311 JUMP JUMPDEST SWAP10 SWAP9 POP POP POP POP POP POP POP POP POP JUMP JUMPDEST PUSH1 0x0 DUP3 DUP3 MSTORE PUSH1 0x20 DUP3 ADD SWAP1 POP SWAP3 SWAP2 POP POP JUMP JUMPDEST PUSH32 0x4E6F742061646D696E0000000000000000000000000000000000000000000000 PUSH1 0x0 DUP3 ADD MSTORE POP JUMP JUMPDEST PUSH1 0x0 PUSH2 0x173F PUSH1 0x9 DUP4 PUSH2 0x16F8 JUMP JUMPDEST SWAP2 POP PUSH2 0x174A DUP3 PUSH2 0x1709 JUMP JUMPDEST PUSH1 0x20 DUP3 ADD SWAP1 POP SWAP2 SWAP1 POP JUMP JUMPDEST PUSH1 0x0 PUSH1 0x20 DUP3 ADD SWAP1 POP DUP2 DUP2 SUB PUSH1 0x0 DUP4 ADD MSTORE PUSH2 0x176E DUP2 PUSH2 0x1732 JUMP JUMPDEST SWAP1 POP SWAP2 SWAP1 POP JUMP JUMPDEST PUSH32 0x5061757365640000000000000000000000000000000000000000000000000000 PUSH1 0x0 DUP3 ADD MSTORE POP JUMP JUMPDEST PUSH1 0x0 PUSH2 0x17AB PUSH1 0x6 DUP4 PUSH2 0x16F8 JUMP JUMPDEST SWAP2 POP PUSH2 0x17B6 DUP3 PUSH2 0x1775 JUMP JUMPDEST PUSH1 0x20 DUP3 ADD SWAP1 POP SWAP2 SWAP1 POP JUMP JUMPDEST PUSH1 0x0 PUSH1 0x20 DUP3 ADD SWAP1 POP DUP2 DUP2 SUB PUSH1 0x0 DUP4 ADD MSTORE PUSH2 0x17DA DUP2 PUSH2 0x179E JUMP JUMPDEST SWAP1 POP SWAP2 SWAP1 POP JUMP JUMPDEST PUSH32 0x496E73756666696369656E74207061796D656E74000000000000000000000000 PUSH1 0x0 DUP3 ADD MSTORE POP JUMP JUMPDEST PUSH1 0x0 PUSH2 0x1817 PUSH1 0x14 DUP4 PUSH2 0x16F8 JUMP JUMPDEST SWAP2 POP PUSH2 0x1822 DUP3 PUSH2 0x17E1 JUMP JUMPDEST PUSH1 0x20 DUP3 ADD SWAP1 POP SWAP2 SWAP1 POP JUMP JUMPDEST PUSH1 0x0 PUSH1 0x20 DUP3 ADD SWAP1 POP DUP2 DUP2 SUB PUSH1 0x0 DUP4 ADD MSTORE PUSH2 0x1846 DUP2 PUSH2 0x180A JUMP JUMPDEST SWAP1 POP SWAP2 SWAP1 POP JUMP JUMPDEST PUSH32 0x4E487B7100000000000000000000000000000000000000000000000000000000 PUSH1 0x0 MSTORE PUSH1 0x11 PUSH1 0x4 MSTORE PUSH1 0x24 PUSH1 0x0 REVERT JUMPDEST PUSH1 0x0 PUSH2 0x1887 DUP3 PUSH2 0x1221 JUMP JUMPDEST SWAP2 POP PUSH32 0xFFFFFFFFFFFFFFFFFFFFFFFFFFFFFFFFFFFFFFFFFFFFFFFFFFFFFFFFFFFFFFFF DUP3 SUB PUSH2 0x18B9 JUMPI PUSH2 0x18B8 PUSH2 0x184D JUMP JUMPDEST JUMPDEST PUSH1 0x1 DUP3 ADD SWAP1 POP SWAP2 SWAP1 POP JUMP JUMPDEST PUSH1 0x0 DUP2 PUSH1 0x60 SHL SWAP1 POP SWAP2 SWAP1 POP JUMP JUMPDEST PUSH1 0x0 PUSH2 0x18DC DUP3 PUSH2 0x18C4 JUMP JUMPDEST SWAP1 POP SWAP2 SWAP1 POP JUMP JUMPDEST PUSH1 0x0 PUSH2 0x18EE DUP3 PUSH2 0x18D1 JUMP JUMPDEST SWAP1 POP SWAP2 SWAP1 POP JUMP JUMPDEST PUSH2 0x1906 PUSH2 0x1901 DUP3 PUSH2 0x156E JUMP JUMPDEST PUSH2 0x18E3 JUMP JUMPDEST DUP3 MSTORE POP POP JUMP JUMPDEST PUSH1 0x0 DUP2 SWAP1 POP SWAP2 SWAP1 POP JUMP JUMPDEST PUSH2 0x1927 PUSH2 0x1922 DUP3 PUSH2 0x1284 JUMP JUMPDEST PUSH2 0x190C JUMP JUMPDEST DUP3 MSTORE POP POP JUMP JUMPDEST PUSH1 0x0 DUP2 SWAP1 POP SWAP2 SWAP1 POP JUMP JUMPDEST PUSH2 0x1948 PUSH2 0x1943 DUP3 PUSH2 0x1221 JUMP JUMPDEST PUSH2 0x192D JUMP JUMPDEST DUP3 MSTORE POP POP JUMP JUMPDEST PUSH1 0x0 PUSH2 0x195A DUP3 DUP8 PUSH2 0x18F5 JUMP JUMPDEST PUSH1 0x14 DUP3 ADD SWAP2 POP PUSH2 0x196A DUP3 DUP7 PUSH2 0x1916 JUMP JUMPDEST PUSH1 0x20 DUP3 ADD SWAP2 POP PUSH2 0x197A DUP3 DUP6 PUSH2 0x1937 JUMP JUMPDEST PUSH1 0x20 DUP3 ADD SWAP2 POP PUSH2 0x198A DUP3 DUP5 PUSH2 0x1937 JUMP JUMPDEST PUSH1 0x20 DUP3 ADD SWAP2 POP DUP2 SWAP1 POP SWAP6 SWAP5 POP POP POP POP POP JUMP JUMPDEST PUSH1 0x0 PUSH1 0x60 DUP3 ADD SWAP1 POP PUSH2 0x19B1 PUSH1 0x0 DUP4 ADD DUP7 PUSH2 0x12E7 JUMP JUMPDEST PUSH2 0x19BE PUSH1 0x20 DUP4 ADD DUP6 PUSH2 0x1311 JUMP JUMPDEST PUSH2 0x19CB PUSH1 0x40 DUP4 ADD DUP5 PUSH2 0x1311 JUMP JUMPDEST SWAP5 SWAP4 POP POP POP POP JUMP JUMPDEST PUSH32 0x496E76616C696420737461747573000000000000000000000000000000000000 PUSH1 0x0 DUP3 ADD MSTORE POP JUMP JUMPDEST PUSH1 0x0 PUSH2 0x1A09 PUSH1 0xE DUP4 PUSH2 0x16F8 JUMP JUMPDEST SWAP2 POP PUSH2 0x1A14 DUP3 PUSH2 0x19D3 JUMP JUMPDEST PUSH1 0x20 DUP3 ADD SWAP1 POP SWAP2 SWAP1 POP JUMP JUMPDEST PUSH1 0x0 PUSH1 0x20 DUP3 ADD SWAP1 POP DUP2 DUP2 SUB PUSH1 0x0 DUP4 ADD MSTORE PUSH2 0x1A38 DUP2 PUSH2 0x19FC JUMP JUMPDEST SWAP1 POP SWAP2 SWAP1 POP JUMP JUMPDEST PUSH1 0x0 PUSH2 0x1A4B DUP3 DUP8 PUSH2 0x1916 JUMP JUMPDEST PUSH1 0x20 DUP3 ADD SWAP2 POP PUSH2 0x1A5B DUP3 DUP7 PUSH2 0x1916 JUMP JUMPDEST PUSH1 0x20 DUP3 ADD SWAP2 POP PUSH2 0x1A6B DUP3 DUP6 PUSH2 0x1916 JUMP JUMPDEST PUSH1 0x20 DUP3 ADD SWAP2 POP PUSH2 0x1A7B DUP3 DUP5 PUSH2 0x1916 JUMP JUMPDEST PUSH1 0x20 DUP3 ADD SWAP2 POP DUP2 SWAP1 POP SWAP6 SWAP5 POP POP POP POP POP JUMP JUMPDEST PUSH1 0x0 DUP2 SWAP1 POP SWAP3 SWAP2 POP POP JUMP JUMPDEST PUSH32 0x19457468657265756D205369676E6564204D6573736167653A0A333200000000 PUSH1 0x0 DUP3 ADD MSTORE POP JUMP JUMPDEST PUSH1 0x0 PUSH2 0x1ACE PUSH1 0x1C DUP4 PUSH2 0x1A8D JUMP JUMPDEST SWAP2 POP PUSH2 0x1AD9 DUP3 PUSH2 0x1A98 JUMP JUMPDEST PUSH1 0x1C DUP3 ADD SWAP1 POP SWAP2 SWAP1 POP JUMP JUMPDEST PUSH1 0x0 PUSH2 0x1AEF DUP3 PUSH2 0x1AC1 JUMP JUMPDEST SWAP2 POP PUSH2 0x1AFB DUP3 DUP5 PUSH2 0x1916 JUMP JUMPDEST PUSH1 0x20 DUP3 ADD SWAP2 POP DUP2 SWAP1 POP SWAP3 SWAP2 POP POP JUMP JUMPDEST PUSH32 0x496E76616C6964207369676E6174757265000000000000000000000000000000 PUSH1 0x0 DUP3 ADD MSTORE POP JUMP JUMPDEST PUSH1 0x0 PUSH2 0x1B40 PUSH1 0x11 DUP4 PUSH2 0x16F8 JUMP JUMPDEST SWAP2 POP PUSH2 0x1B4B DUP3 PUSH2 0x1B0A JUMP JUMPDEST PUSH1 0x20 DUP3 ADD SWAP1 POP SWAP2 SWAP1 POP JUMP JUMPDEST PUSH1 0x0 PUSH1 0x20 DUP3 ADD SWAP1 POP DUP2 DUP2 SUB PUSH1 0x0 DUP4 ADD MSTORE PUSH2 0x1B6F DUP2 PUSH2 0x1B33 JUMP JUMPDEST SWAP1 POP SWAP2 SWAP1 POP JUMP JUMPDEST PUSH1 0x0 PUSH1 0x60 DUP3 ADD SWAP1 POP PUSH2 0x1B8B PUSH1 0x0 DUP4 ADD DUP7 PUSH2 0x12E7 JUMP JUMPDEST PUSH2 0x1B98 PUSH1 0x20 DUP4 ADD DUP6 PUSH2 0x12E7 JUMP JUMPDEST PUSH2 0x1BA5 PUSH1 0x40 DUP4 ADD DUP5 PUSH2 0x12E7 JUMP JUMPDEST SWAP5 SWAP4 POP POP POP POP JUMP JUMPDEST PUSH32 0x4E6F742072656C61796572000000000000000000000000000000000000000000 PUSH1 0x0 DUP3 ADD MSTORE POP JUMP JUMPDEST PUSH1 0x0 PUSH2 0x1BE3 PUSH1 0xB DUP4 PUSH2 0x16F8 JUMP JUMPDEST SWAP2 POP PUSH2 0x1BEE DUP3 PUSH2 0x1BAD JUMP JUMPDEST PUSH1 0x20 DUP3 ADD SWAP1 POP SWAP2 SWAP1 POP JUMP JUMPDEST PUSH1 0x0 PUSH1 0x20 DUP3 ADD SWAP1 POP DUP2 DUP2 SUB PUSH1 0x0 DUP4 ADD MSTORE PUSH2 0x1C12 DUP2 PUSH2 0x1BD6 JUMP JUMPDEST SWAP1 POP SWAP2 SWAP1 POP JUMP JUMPDEST PUSH32 0x4E6F74206F776E65720000000000000000000000000000000000000000000000 PUSH1 0x0 DUP3 ADD MSTORE POP JUMP JUMPDEST PUSH1 0x0 PUSH2 0x1C4F PUSH1 0x9 DUP4 PUSH2 0x16F8 JUMP JUMPDEST SWAP2 POP PUSH2 0x1C5A DUP3 PUSH2 0x1C19 JUMP JUMPDEST PUSH1 0x20 DUP3 ADD SWAP1 POP SWAP2 SWAP1 POP JUMP JUMPDEST PUSH1 0x0 PUSH1 0x20 DUP3 ADD SWAP1 POP DUP2 DUP2 SUB PUSH1 0x0 DUP4 ADD MSTORE PUSH2 0x1C7E DUP2 PUSH2 0x1C42 JUMP JUMPDEST SWAP1 POP SWAP2 SWAP1 POP JUMP JUMPDEST PUSH32 0x4E6F7420636F6E6669726D656400000000000000000000000000000000000000 PUSH1 0x0 DUP3 ADD MSTORE POP JUMP JUMPDEST PUSH1 0x0 PUSH2 0x1CBB PUSH1 0xD DUP4 PUSH2 0x16F8 JUMP JUMPDEST SWAP2 POP PUSH2 0x1CC6 DUP3 PUSH2 0x1C85 JUMP JUMPDEST PUSH1 0x20 DUP3 ADD SWAP1 POP SWAP2 SWAP1 POP JUMP JUMPDEST PUSH1 0x0 PUSH1 0x20 DUP3 ADD SWAP1 POP DUP2 DUP2 SUB PUSH1 0x0 DUP4 ADD MSTORE PUSH2 0x1CEA DUP2 PUSH2 0x1CAE JUMP JUMPDEST SWAP1 POP SWAP2 SWAP1 POP JUMP JUMPDEST PUSH1 0x0 PUSH1 0xFF DUP3 AND SWAP1 POP SWAP2 SWAP1 POP JUMP JUMPDEST PUSH2 0x1D07 DUP2 PUSH2 0x1CF1 JUMP JUMPDEST DUP3 MSTORE POP POP JUMP JUMPDEST PUSH1 0x0 PUSH1 0x80 DUP3 ADD SWAP1 POP PUSH2 0x1D22 PUSH1 0x0 DUP4 ADD DUP8 PUSH2 0x12E7 JUMP JUMPDEST PUSH2 0x1D2F PUSH1 0x20 DUP4 ADD DUP7 PUSH2 0x1CFE JUMP JUMPDEST PUSH2 0x1D3C PUSH1 0x40 DUP4 ADD DUP6 PUSH2 0x12E7 JUMP JUMPDEST PUSH2 0x1D49 PUSH1 0x60 DUP4 ADD DUP5 PUSH2 0x12E7 JUMP JUMPDEST SWAP6 SWAP5 POP POP POP POP POP JUMP INVALID LOG2 PUSH5 0x6970667358 0x22 SLT KECCAK256 RETURNDATASIZE 0xD5 PUSH6 0xAE1D8737DC3D PUSH14 0xDE281D635794C7B64D5FE27D0765 DIV CALLDATALOAD 0x4D BYTE 0xD0 0xE8 0xE3 PUSH3 0x64736F PUSH13 0x63430008140033000000000000 "},"methodIdentifiers":{"MIN_PAYMENT()":"eb566e91","admin()":"f851a440","initiateStorage(bytes32)":"51c65fef","markFailed(bytes32)":"925ed1a1","pause()":"8456cb59","paused()":"5c975abb","relayer()":"8406c079","requestCount()":"5badbe4c","requests(bytes32)":"9d866985","revokeAccess(bytes32)":"b1263ada","unpause()":"3f4ba83a","updateRelayer(address)":"8f83ab13","verifyReceipt(bytes32,bytes32,bytes32,bytes32,bytes)":"82f0d8ee","withdraw(uint256)":"2e1a7d4d"}}}}}